{"contracts/DuxxanPlatform.sol":{"DuxxanPlatformSimple":{"abi":[{"inputs":[{"internalType":"address","name":"_usdtToken","type":"address"},{"internalType":"address","name":"_commissionWallet","type":"address"}],"stateMutability":"nonpayable","type":"constructor"},{"inputs":[{"internalType":"address","name":"owner","type":"address"}],"name":"OwnableInvalidOwner","type":"error"},{"inputs":[{"internalType":"address","name":"account","type":"address"}],"name":"OwnableUnauthorizedAccount","type":"error"},{"inputs":[],"name":"ReentrancyGuardReentrantCall","type":"error"},{"anonymous":false,"inputs":[{"indexed":true,"internalType":"uint256","name":"donationId","type":"uint256"},{"indexed":true,"internalType":"address","name":"creator","type":"address"},{"indexed":false,"internalType":"uint256","name":"goalAmount","type":"uint256"}],"name":"DonationCreated","type":"event"},{"anonymous":false,"inputs":[{"indexed":true,"internalType":"uint256","name":"donationId","type":"uint256"},{"indexed":true,"internalType":"address","name":"donor","type":"address"},{"indexed":false,"internalType":"uint256","name":"amount","type":"uint256"}],"name":"DonationMade","type":"event"},{"anonymous":false,"inputs":[{"indexed":true,"internalType":"address","name":"previousOwner","type":"address"},{"indexed":true,"internalType":"address","name":"newOwner","type":"address"}],"name":"OwnershipTransferred","type":"event"},{"anonymous":false,"inputs":[{"indexed":true,"internalType":"uint256","name":"raffleId","type":"uint256"},{"indexed":true,"internalType":"address","name":"winner","type":"address"},{"indexed":false,"internalType":"uint256","name":"amount","type":"uint256"}],"name":"PayoutReleased","type":"event"},{"anonymous":false,"inputs":[{"indexed":true,"internalType":"uint256","name":"raffleId","type":"uint256"},{"indexed":true,"internalType":"address","name":"creator","type":"address"},{"indexed":false,"internalType":"uint256","name":"prizeAmount","type":"uint256"},{"indexed":false,"internalType":"enum DuxxanPlatformSimple.PrizeType","name":"prizeType","type":"uint8"}],"name":"RaffleCreated","type":"event"},{"anonymous":false,"inputs":[{"indexed":true,"internalType":"uint256","name":"raffleId","type":"uint256"},{"indexed":true,"internalType":"address","name":"winner","type":"address"},{"indexed":false,"internalType":"uint256","name":"prizeAmount","type":"uint256"}],"name":"RaffleEnded","type":"event"},{"anonymous":false,"inputs":[{"indexed":true,"internalType":"uint256","name":"raffleId","type":"uint256"},{"indexed":true,"internalType":"address","name":"buyer","type":"address"},{"indexed":false,"internalType":"uint256","name":"quantity","type":"uint256"}],"name":"TicketPurchased","type":"event"},{"inputs":[],"name":"CREATOR_SHARE","outputs":[{"internalType":"uint256","name":"","type":"uint256"}],"stateMutability":"view","type":"function"},{"inputs":[],"name":"DONATION_COMMISSION_RATE","outputs":[{"internalType":"uint256","name":"","type":"uint256"}],"stateMutability":"view","type":"function"},{"inputs":[],"name":"DONATION_CREATION_FEE","outputs":[{"internalType":"uint256","name":"","type":"uint256"}],"stateMutability":"view","type":"function"},{"inputs":[],"name":"PLATFORM_SHARE","outputs":[{"internalType":"uint256","name":"","type":"uint256"}],"stateMutability":"view","type":"function"},{"inputs":[],"name":"RAFFLE_COMMISSION_RATE","outputs":[{"internalType":"uint256","name":"","type":"uint256"}],"stateMutability":"view","type":"function"},{"inputs":[],"name":"RAFFLE_CREATION_FEE","outputs":[{"internalType":"uint256","name":"","type":"uint256"}],"stateMutability":"view","type":"function"},{"inputs":[],"name":"USDT","outputs":[{"internalType":"contract IERC20","name":"","type":"address"}],"stateMutability":"view","type":"function"},{"inputs":[{"internalType":"uint256","name":"_raffleId","type":"uint256"},{"internalType":"bool","name":"_approve","type":"bool"}],"name":"approveRaffleResult","outputs":[],"stateMutability":"nonpayable","type":"function"},{"inputs":[{"internalType":"uint256","name":"_raffleId","type":"uint256"},{"internalType":"uint256","name":"_quantity","type":"uint256"}],"name":"buyTickets","outputs":[],"stateMutability":"nonpayable","type":"function"},{"inputs":[],"name":"commissionWallet","outputs":[{"internalType":"address","name":"","type":"address"}],"stateMutability":"view","type":"function"},{"inputs":[{"internalType":"string","name":"_title","type":"string"},{"internalType":"string","name":"_description","type":"string"},{"internalType":"uint256","name":"_goalAmount","type":"uint256"},{"internalType":"uint256","name":"_duration","type":"uint256"},{"internalType":"bool","name":"_isUnlimited","type":"bool"}],"name":"createDonation","outputs":[],"stateMutability":"nonpayable","type":"function"},{"inputs":[{"internalType":"string","name":"_title","type":"string"},{"internalType":"string","name":"_description","type":"string"},{"internalType":"uint256","name":"_prizeAmount","type":"uint256"},{"internalType":"uint256","name":"_ticketPrice","type":"uint256"},{"internalType":"uint256","name":"_maxTickets","type":"uint256"},{"internalType":"uint256","name":"_duration","type":"uint256"},{"internalType":"enum DuxxanPlatformSimple.PrizeType","name":"_prizeType","type":"uint8"}],"name":"createRaffle","outputs":[],"stateMutability":"nonpayable","type":"function"},{"inputs":[],"name":"deployWallet","outputs":[{"internalType":"address","name":"","type":"address"}],"stateMutability":"view","type":"function"},{"inputs":[{"internalType":"uint256","name":"","type":"uint256"},{"internalType":"address","name":"","type":"address"}],"name":"donationContributions","outputs":[{"internalType":"uint256","name":"","type":"uint256"}],"stateMutability":"view","type":"function"},{"inputs":[],"name":"donationCounter","outputs":[{"internalType":"uint256","name":"","type":"uint256"}],"stateMutability":"view","type":"function"},{"inputs":[{"internalType":"uint256","name":"","type":"uint256"}],"name":"donations","outputs":[{"internalType":"uint256","name":"id","type":"uint256"},{"internalType":"address","name":"creator","type":"address"},{"internalType":"string","name":"title","type":"string"},{"internalType":"string","name":"description","type":"string"},{"internalType":"uint256","name":"goalAmount","type":"uint256"},{"internalType":"uint256","name":"currentAmount","type":"uint256"},{"internalType":"uint256","name":"endTime","type":"uint256"},{"internalType":"bool","name":"isActive","type":"bool"},{"internalType":"bool","name":"isUnlimited","type":"bool"}],"stateMutability":"view","type":"function"},{"inputs":[{"internalType":"address","name":"_token","type":"address"},{"internalType":"uint256","name":"_amount","type":"uint256"}],"name":"emergencyWithdraw","outputs":[],"stateMutability":"nonpayable","type":"function"},{"inputs":[{"internalType":"uint256","name":"_raffleId","type":"uint256"}],"name":"endRaffle","outputs":[],"stateMutability":"nonpayable","type":"function"},{"inputs":[{"internalType":"uint256","name":"_donationId","type":"uint256"},{"internalType":"uint256","name":"_amount","type":"uint256"}],"name":"makeDonation","outputs":[],"stateMutability":"nonpayable","type":"function"},{"inputs":[],"name":"owner","outputs":[{"internalType":"address","name":"","type":"address"}],"stateMutability":"view","type":"function"},{"inputs":[],"name":"raffleCounter","outputs":[{"internalType":"uint256","name":"","type":"uint256"}],"stateMutability":"view","type":"function"},{"inputs":[{"internalType":"uint256","name":"","type":"uint256"},{"internalType":"address","name":"","type":"address"}],"name":"raffleTickets","outputs":[{"internalType":"uint256","name":"","type":"uint256"}],"stateMutability":"view","type":"function"},{"inputs":[{"internalType":"uint256","name":"","type":"uint256"}],"name":"raffles","outputs":[{"internalType":"uint256","name":"id","type":"uint256"},{"internalType":"address","name":"creator","type":"address"},{"internalType":"string","name":"title","type":"string"},{"internalType":"string","name":"description","type":"string"},{"internalType":"uint256","name":"prizeAmount","type":"uint256"},{"internalType":"uint256","name":"ticketPrice","type":"uint256"},{"internalType":"uint256","name":"maxTickets","type":"uint256"},{"internalType":"uint256","name":"ticketsSold","type":"uint256"},{"internalType":"uint256","name":"endTime","type":"uint256"},{"internalType":"bool","name":"isActive","type":"bool"},{"internalType":"bool","name":"isCompleted","type":"bool"},{"internalType":"address","name":"winner","type":"address"},{"internalType":"enum DuxxanPlatformSimple.PrizeType","name":"prizeType","type":"uint8"},{"internalType":"bool","name":"creatorApproved","type":"bool"},{"internalType":"bool","name":"platformApproved","type":"bool"},{"internalType":"bool","name":"payoutReleased","type":"bool"}],"stateMutability":"view","type":"function"},{"inputs":[],"name":"renounceOwnership","outputs":[],"stateMutability":"nonpayable","type":"function"},{"inputs":[{"internalType":"address","name":"newOwner","type":"address"}],"name":"transferOwnership","outputs":[],"stateMutability":"nonpayable","type":"function"},{"inputs":[{"internalType":"address","name":"_newWallet","type":"address"}],"name":"updateCommissionWallet","outputs":[],"stateMutability":"nonpayable","type":"function"}],"evm":{"bytecode":{"linkReferences":{},"object":"60c0346200014057601f620025b838819003918201601f19168301916001600160401b038311848410176200014557808492604094855283398101031262000140576200005a602062000052836200015b565b92016200015b565b60016000553315620001275760018054336001600160a01b031980831682179093556040519492936001600160a01b0393909284929083167f8be0079c531659141344cd1fd0a4f28419497f9722a3daafe3b4186f6b6457e0600080a316608052169060025416176002553360a0526124479081620001718239608051818181610375015281816107f801528181610be901528181610e67015281816113260152818161182a01528181611c6601528181611ccc0152611e9e015260a05181818161122701526118ed0152f35b604051631e4fbdf760e01b815260006004820152602490fd5b600080fd5b634e487b7160e01b600052604160045260246000fd5b51906001600160a01b0382168203620001405756fe608080604052600436101561001357600080fd5b60003560e01c90816304d38dd41461205e5750806329c6f60c146107d857806331ae8abc14611adc57806338d187dd14611abe57806352fba8ef1461125657806353535db9146112115780635d4bc0ce146110eb578063623560af14610dd257806366fab57c146107dd5780636aa42e4e14610db6578063715018a614610d595780638627df4614610b485780638da5cb5b14610b1f57806395ccea6714610aa057806397c0262a14610a775780639def429d1461088d578063a9f8623a14610845578063c2f306a514610827578063c54e44eb146107e2578063cc0c3039146107dd578063e444a278146107d8578063ee2c18ba14610790578063f29c940b146102cd578063f2fde38b14610244578063f33b5541146102015763f8626af81461013d57600080fd5b346101fc5760203660031901126101fc5760043560005260046020526040600020805460018060a01b036001830154169160ff61017c6002830161214d565b6101886003840161214d565b926004810154936101d26005830154916101c460076006860154950154956040519a8b9a8b5260208b01526101208060408c01528a01906121f3565b9088820360608a01526121f3565b94608087015260a086015260c0850152818116151560e085015260081c1615156101008301520390f35b600080fd5b346101fc5760203660031901126101fc5761021a612272565b61022261229e565b600280546001600160a01b0319166001600160a01b0392909216919091179055005b346101fc5760203660031901126101fc5761025d612272565b61026561229e565b6001600160a01b039081169081156102b457600154826001600160601b0360a01b821617600155167f8be0079c531659141344cd1fd0a4f28419497f9722a3daafe3b4186f6b6457e0600080a3005b604051631e4fbdf760e01b815260006004820152602490fd5b346101fc5760a03660031901126101fc576004356001600160401b0381116101fc576102fd9036906004016120bd565b6024356001600160401b0381116101fc5761031c9036906004016120bd565b60843580151581036101fc5761033061234a565b6002546040516323b872dd60e01b81523360048201526001600160a01b03918216602482015268015af1d78b58c40000604482015290602090829060649082906000907f0000000000000000000000000000000000000000000000000000000000000000165af18015610784576103af91600091610755575b506122e2565b600854918115610743576000905b6040519461012086018681106001600160401b0382111761066d57604052848652336020870152604086015260608501526044356080850152600060a085015260c0840152600160e0840152151561010083015260005260046020526040600020815181556001810160018060a01b036020840151166001600160601b0360a01b82541617905560408201519182516001600160401b03811161066d576104676002840154612113565b601f81116106fc575b506020601f821160011461068e5781929394600092610683575b50508160011b916000199060031b1c19161760028301555b60608101518051906001600160401b03821161066d576104c56003850154612113565b601f8111610626575b50602090601f83116001146105ad5793826101009360079361055e976000926105a2575b50508160011b916000199060031b1c19161760038201555b6080840151600482015560a0840151600582015560c08401516006820155019161054660e08201511515849060ff801983541691151516179055565b0151815461ff00191690151560081b61ff0016179055565b6105986008546040516044358152817fdd17f6c68d84fb01706d9f9e9ed1a2267d9171bff4c61d024f503d6c9ccb931c60203393a361233b565b6008556001600055005b0151905087806104f2565b906003850160005260206000209160005b601f198516811061060e57508360079361055e979360019361010097601f198116106105f5575b505050811b01600382015561050a565b015160001960f88460031b161c191690558780806105e5565b919260206001819286850151815501940192016105be565b600385016000526020600020601f840160051c810160208510610666575b601f830160051c8201811061065a5750506104ce565b60008155600101610644565b5080610644565b634e487b7160e01b600052604160045260246000fd5b01519050848061048a565b6002840160005260206000209060005b601f19841681106106e45750600193949583601f198116106106cb575b505050811b0160028301556104a2565b015160001960f88460031b161c191690558480806106bb565b9091602060018192858a01518155019301910161069e565b600284016000526020600020601f830160051c81016020841061073c575b601f830160051c82018110610730575050610470565b6000815560010161071a565b508061071a565b61074f6064354261232e565b906103bd565b610777915060203d60201161077d575b61076f818361209c565b8101906122ca565b856103a9565b503d610765565b6040513d6000823e3d90fd5b346101fc5760403660031901126101fc576107a9612288565b600435600052600560205260406000209060018060a01b03166000526020526020604060002054604051908152f35b612078565b612256565b346101fc5760003660031901126101fc576040517f00000000000000000000000000000000000000000000000000000000000000006001600160a01b03168152602090f35b346101fc5760003660031901126101fc576020600754604051908152f35b346101fc5760403660031901126101fc5761085e612288565b600435600052600660205260406000209060018060a01b03166000526020526020604060002054604051908152f35b346101fc576020806003193601126101fc57600435806000526003825260406000209160098301908154916108c460ff841661236d565b60088501544210801590610a65575b15610a205760018501546001600160a01b039390841633148015610a13575b156109dd5761ffff19166101001781556007850154158015610946575b507f3f8a70ebc2357528ffbd62df52804d67d18cb2dc04d8a034c9c932e982d2cf37926004915460101c16940154604051908152a3005b60405142848201524460408201524360608201528560808201526080815260a081019081106001600160401b0382111761066d576040526109c757805462010000600160b01b0319163360101b62010000600160b01b03161781557f3f8a70ebc2357528ffbd62df52804d67d18cb2dc04d8a034c9c932e982d2cf3761090f565b634e487b7160e01b600052601260045260246000fd5b60405162461bcd60e51b815260048101849052600e60248201526d139bdd08185d5d1a1bdc9a5e995960921b6044820152606490fd5b50836001541633146108f2565b60405162461bcd60e51b815260048101839052601760248201527f526166666c65206e6f7420726561647920746f20656e640000000000000000006044820152606490fd5b506007850154600686015411156108d3565b346101fc5760003660031901126101fc576002546040516001600160a01b039091168152602090f35b346101fc5760403660031901126101fc57610ab9612272565b610ac161229e565b60015460405163a9059cbb60e01b81526001600160a01b03918216600482015260248035908201529160209183916044918391600091165af1801561078457610b0657005b610b1d9060203d811161077d5761076f818361209c565b005b346101fc5760003660031901126101fc576001546040516001600160a01b039091168152602090f35b346101fc57610b5636612240565b90610b5f61234a565b806000526020600381526040600020610b7e60ff60098301541661236d565b6008810154421015610d25576007810190610b9a85835461232e565b600682015410610ce05782610bb6866005610be39401546123ad565b6040516323b872dd60e01b8152336004820152306024820152604481019190915291829081906064820190565b038160007f00000000000000000000000000000000000000000000000000000000000000006001600160a01b03165af190811561078457600091610cc3575b5015610c8d57907fdbaaf4c87ce30816c961a81d110622a3227ede77953d4383d514ff88ab2e0fd391836000526005825260406000203360005282526040600020610c6e86825461232e565b9055610c7b85825461232e565b90556040519384523393a36001600055005b60405162461bcd60e51b815260048101839052600e60248201526d14185e5b595b9d0819985a5b195960921b6044820152606490fd5b610cda9150833d851161077d5761076f818361209c565b85610c22565b60405162461bcd60e51b815260048101849052601c60248201527f4e6f7420656e6f756768207469636b65747320617661696c61626c65000000006044820152606490fd5b60405162461bcd60e51b815260048101839052600c60248201526b149859999b1948195b99195960a21b6044820152606490fd5b346101fc5760003660031901126101fc57610d7261229e565b600180546001600160a01b031981169091556000906001600160a01b03167f8be0079c531659141344cd1fd0a4f28419497f9722a3daafe3b4186f6b6457e08280a3005b346101fc5760003660031901126101fc576020604051600a8152f35b346101fc57610de036612240565b90610de961234a565b806000526020600481526040600020600781015460ff8116156110b057841561106b5760081c60ff1615611023575b8360011b84810460020361100d5760649004610e3481866123c0565b60018301546040516323b872dd60e01b8082523360048301526001600160a01b03928316602483015260448201939093527f0000000000000000000000000000000000000000000000000000000000000000821692919086816064816000885af190811561078457600091610ff0575b5015610fab57600254604051928352336004840152166001600160a01b0316602482015260448101929092528390829060649082906000905af190811561078457600091610f8e575b5015610f49579060057fe555da28bdb778f65d22794d88927ebaeca03f7de9d1b7d39245bc8fb5ca078a92846000526006835260406000203360005283526040600020610f3b87825461232e565b905501610c7b85825461232e565b60405162461bcd60e51b815260048101839052601a60248201527f436f6d6d697373696f6e207472616e73666572206661696c65640000000000006044820152606490fd5b610fa59150833d851161077d5761076f818361209c565b85610eed565b60405162461bcd60e51b815260048101879052601860248201527f446f6e6174696f6e207472616e73666572206661696c656400000000000000006044820152606490fd5b6110079150873d891161077d5761076f818361209c565b89610ea4565b634e487b7160e01b600052601160045260246000fd5b60068101544210610e185760405162461bcd60e51b8152600481018390526015602482015274111bdb985d1a5bdb881c195c9a5bd908195b991959605a1b6044820152606490fd5b60405162461bcd60e51b815260048101849052601d60248201527f416d6f756e74206d7573742062652067726561746572207468616e20300000006044820152606490fd5b60405162461bcd60e51b8152600481018490526013602482015272446f6e6174696f6e206e6f742061637469766560681b6044820152606490fd5b346101fc5760203660031901126101fc576004356000908152600360205260409020805460018201546001600160a01b03908116929061112d6002830161214d565b6111396003840161214d565b92600481015493600582015460068301549061119060078501549361118260096008880154970154976040519c8d9c8d5260208d015260408c61020091829101528c01906121f3565b908a820360608c01526121f3565b96608089015260a088015260c087015260e086015261010085015260ff918282161515610120860152828260081c1615156101408601528160101c166101608501526111e56101808501838360b01c16612233565b818160b81c1615156101a0850152818160c01c1615156101c085015260c81c1615156101e08301520390f35b346101fc5760003660031901126101fc576040517f00000000000000000000000000000000000000000000000000000000000000006001600160a01b03168152602090f35b346101fc5760e03660031901126101fc576004356001600160401b0381116101fc576112869036906004016120bd565b6024356001600160401b0381116101fc576112a59036906004016120bd565b600260c43510156101fc576112b861234a565b60443515611a6d5760643515611a1c57608435156119cc5760a435156119875760c435156118e3575b6002546040516323b872dd60e01b81523360048201526001600160a01b03918216602482015268015af1d78b58c40000604482015290602090829060649082906000907f0000000000000000000000000000000000000000000000000000000000000000165af180156107845761135f916000916118c457506122e2565b60c435156117f7575b6007549061137860a4354261232e565b9060405193846102008101106001600160401b036102008701111761066d57610200850160405283855233602086015260408501526060840152604435608084015260643560a084015260843560c0840152600060e084015261010083015260016101208301526000610140830152600061016083015260c43561018083015260006101a083015260006101c083015260006101e08301526000526003602052604060002090805182556001820160018060a01b036020830151166001600160601b0360a01b82541617905560408101519182516001600160401b03811161066d576114676002830154612113565b601f81116117b0575b506020601f82116001146117425781929394600092611737575b50508160011b916000199060031b1c19161760028201555b60608201518051906001600160401b03821161066d576114c56003840154612113565b601f81116116f0575b50602090601f831160011461167d57600993929160009183611672575b50508160011b916000199060031b1c19161760038201555b6080830151600482015560a0830151600582015560c0830151600682015560e08301516007820155610100830151600882015501906115556101208201511515839060ff801983541691151516179055565b610140810151825461ff00191690151560081b61ff0016178255610160810151825462010000600160b01b03191660109190911b62010000600160b01b031617825561018081015190600282101561165c5782546101a08201516101c08301516101e09093015192151560c01b60ff60c01b1690151560b81b60ff60b81b1660b09490941b60ff60b01b1663ffffffff60b01b1990921691909117929092179190911790151560c81b60ff60c81b16179055600754604051604435815261165291906116266020820160c435612233565b817fc890c80dc6c21b947623ff0de3cbaf1a694c5d9f0aa6334eaecae1fb59fe960960403393a361233b565b6007556001600055005b634e487b7160e01b600052602160045260246000fd5b0151905085806114eb565b906003840160005260206000209160005b601f19851681106116d8575091839160019360099695601f198116106116bf575b505050811b016003820155611503565b015160001960f88460031b161c191690558580806116af565b9192602060018192868501518155019401920161168e565b600384016000526020600020601f840160051c810160208510611730575b601f830160051c820181106117245750506114ce565b6000815560010161170e565b508061170e565b01519050848061148a565b6002830160005260206000209060005b601f19841681106117985750600193949583601f1981161061177f575b505050811b0160028201556114a2565b015160001960f88460031b161c1916905584808061176f565b9091602060018192858a015181550193019101611752565b600283016000526020600020601f830160051c8101602084106117f0575b601f830160051c820181106117e4575050611470565b600081556001016117ce565b50806117ce565b6040516323b872dd60e01b8152336004820152306024820152604480359082015260208160648160006001600160a01b037f0000000000000000000000000000000000000000000000000000000000000000165af1908115610784576000916118a5575b506113685760405162461bcd60e51b815260206004820152601c60248201527f5072697a6520616d6f756e74207472616e73666572206661696c6564000000006044820152606490fd5b6118be915060203d60201161077d5761076f818361209c565b8361185b565b6118dd915060203d60201161077d5761076f818361209c565b846103a9565b60018060a01b03807f0000000000000000000000000000000000000000000000000000000000000000163314908115611979575b506112e15760405162461bcd60e51b815260206004820152602f60248201527f4f6e6c7920617574686f72697a65642077616c6c6574732063616e206372656160448201526e7465205553445420726166666c657360881b6064820152608490fd5b905060025416331483611917565b60405162461bcd60e51b815260206004820152601f60248201527f4475726174696f6e206d7573742062652067726561746572207468616e2030006044820152606490fd5b60405162461bcd60e51b815260206004820152602260248201527f4d6178207469636b657473206d7573742062652067726561746572207468616e604482015261020360f41b6064820152608490fd5b60405162461bcd60e51b815260206004820152602360248201527f5469636b6574207072696365206d75737420626520677265617465722074686160448201526206e20360ec1b6064820152608490fd5b60405162461bcd60e51b815260206004820152602360248201527f5072697a6520616d6f756e74206d75737420626520677265617465722074686160448201526206e20360ec1b6064820152608490fd5b346101fc5760003660031901126101fc576020600854604051908152f35b346101fc5760403660031901126101fc576024600435813580151581036101fc578160005260209060038252604060002090600982019081549260ff93848160081c16156120235760c81c8416611fdf57600101546001600160a01b03939291903390851603611f7057815460ff60b81b191690151560b81b60ff60b81b161781555b5482828260b81c169182611f62575b82611f53575b5050611b7c57005b836000526003835260406000209460098601918254818160c81c16611f1c5760ff60c81b1916600160c81b1780845560078801546005890154611bbe916123ad565b91600a8302838104600a1484151715611f075760649004916032830283810460321484151715611ef2576064611c00910493611bfa85826123c0565b956123c0565b918160b01c166002811015611edd5788918891611e69575091611c31611c5f93885460101c169160048d015461232e565b60405163a9059cbb60e01b81526001600160a01b039092166004830152602482015291829081906044820190565b038160008a7f0000000000000000000000000000000000000000000000000000000000000000165af1801561078457611ca091600091611e4c575b506123cd565b60025460405163a9059cbb60e01b8082529187166001600160a01b0316600482015260248101929092527f000000000000000000000000000000000000000000000000000000000000000086169187816044816000875af190811561078457600091611e2f575b5015611deb57600189015460405191825286166001600160a01b0316600482015260248101929092528590829060449082906000905af190811561078457600091611dce575b5015611d8b57507f5621778ab13fbf7130d91ae5035a140b79a6cfd120059c2ea0fec2a5ce6731a692916004915460101c16940154604051908152a3005b8360196064926040519262461bcd60e51b845260048401528201527f43726561746f7220636f6d6d697373696f6e206661696c6564000000000000006044820152fd5b611de59150853d871161077d5761076f818361209c565b87611d4d565b60405162461bcd60e51b815260048101889052601a818601527f506c6174666f726d20636f6d6d697373696f6e206661696c65640000000000006044820152606490fd5b611e469150883d8a1161077d5761076f818361209c565b8a611d07565b611e639150883d8a1161077d5761076f818361209c565b8a611c9a565b60405163a9059cbb60e01b815260109190911c919091166001600160a01b0316600482015260248101929092528160448160007f00000000000000000000000000000000000000000000000000000000000000008b165af1801561078457611ed891600091611e4c57506123cd565b611ca0565b85634e487b7160e01b60005260216004526000fd5b85634e487b7160e01b60005260116004526000fd5b84634e487b7160e01b60005260116004526000fd5b60405162461bcd60e51b8152600481018790526010818501526f105b1c9958591e481c995b19585cd95960821b6044820152606490fd5b60101c16151590508287611b74565b9150828260c01c1691611b6e565b83600154163314600014611f9b57815460ff60c01b191690151560c01b60ff60c01b16178155611b5f565b60405162461bcd60e51b8152600481018690526019818901527f4e6f7420617574686f72697a656420746f20617070726f7665000000000000006044820152606490fd5b60405162461bcd60e51b8152600481018690526017818901527f5061796f757420616c72656164792072656c65617365640000000000000000006044820152606490fd5b60405162461bcd60e51b8152600481018790526014818a015273149859999b19481b9bdd0818dbdb5c1b195d195960621b6044820152606490fd5b346101fc5760003660031901126101fc5780600260209252f35b346101fc5760003660031901126101fc57602060405168015af1d78b58c400008152f35b90601f801991011681019081106001600160401b0382111761066d57604052565b81601f820112156101fc578035906001600160401b03821161066d57604051926120f1601f8401601f19166020018561209c565b828452602083830101116101fc57816000926020809301838601378301015290565b90600182811c92168015612143575b602083101461212d57565b634e487b7160e01b600052602260045260246000fd5b91607f1691612122565b906040519182600082549261216184612113565b9081845260019485811690816000146121d0575060011461218d575b505061218b9250038361209c565b565b9093915060005260209081600020936000915b8183106121b857505061218b9350820101388061217d565b855488840185015294850194879450918301916121a0565b91505061218b94506020925060ff191682840152151560051b820101388061217d565b919082519283825260005b84811061221f575050826000602080949584010152601f8019910116010190565b6020818301810151848301820152016121fe565b90600282101561165c5752565b60409060031901126101fc576004359060243590565b346101fc5760003660031901126101fc57602060405160328152f35b600435906001600160a01b03821682036101fc57565b602435906001600160a01b03821682036101fc57565b6001546001600160a01b031633036122b257565b60405163118cdaa760e01b8152336004820152602490fd5b908160209103126101fc575180151581036101fc5790565b156122e957565b60405162461bcd60e51b815260206004820152601c60248201527f4372656174696f6e20666565207472616e73666572206661696c6564000000006044820152606490fd5b9190820180921161100d57565b600019811461100d5760010190565b60026000541461235b576002600055565b604051633ee5aeb560e01b8152600490fd5b1561237457565b60405162461bcd60e51b8152602060048201526011602482015270526166666c65206e6f742061637469766560781b6044820152606490fd5b8181029291811591840414171561100d57565b9190820391821161100d57565b156123d457565b60405162461bcd60e51b8152602060048201526015602482015274141c9a5e99481d1c985b9cd9995c8819985a5b1959605a1b6044820152606490fdfea264697066735822122069e5d2083b4cc6a7334b24d4df478a11e64c70d4340b0258d562a63f9c9489ab64736f6c63430008140033","opcodes":"PUSH1 0xC0 CALLVALUE PUSH3 0x140 JUMPI PUSH1 0x1F PUSH3 0x25B8 CODESIZE DUP2 SWAP1 SUB SWAP2 DUP3 ADD PUSH1 0x1F NOT AND DUP4 ADD SWAP2 PUSH1 0x1 PUSH1 0x1 PUSH1 0x40 SHL SUB DUP4 GT DUP5 DUP5 LT OR PUSH3 0x145 JUMPI DUP1 DUP5 SWAP3 PUSH1 0x40 SWAP5 DUP6 MSTORE DUP4 CODECOPY DUP2 ADD SUB SLT PUSH3 0x140 JUMPI PUSH3 0x5A PUSH1 0x20 PUSH3 0x52 DUP4 PUSH3 0x15B JUMP JUMPDEST SWAP3 ADD PUSH3 0x15B JUMP JUMPDEST PUSH1 0x1 PUSH1 0x0 SSTORE CALLER ISZERO PUSH3 0x127 JUMPI PUSH1 0x1 DUP1 SLOAD CALLER PUSH1 0x1 PUSH1 0x1 PUSH1 0xA0 SHL SUB NOT DUP1 DUP4 AND DUP3 OR SWAP1 SWAP4 SSTORE PUSH1 0x40 MLOAD SWAP5 SWAP3 SWAP4 PUSH1 0x1 PUSH1 0x1 PUSH1 0xA0 SHL SUB SWAP4 SWAP1 SWAP3 DUP5 SWAP3 SWAP1 DUP4 AND PUSH32 0x8BE0079C531659141344CD1FD0A4F28419497F9722A3DAAFE3B4186F6B6457E0 PUSH1 0x0 DUP1 LOG3 AND PUSH1 0x80 MSTORE AND SWAP1 PUSH1 0x2 SLOAD AND OR PUSH1 0x2 SSTORE CALLER PUSH1 0xA0 MSTORE PUSH2 0x2447 SWAP1 DUP2 PUSH3 0x171 DUP3 CODECOPY PUSH1 0x80 MLOAD DUP2 DUP2 DUP2 PUSH2 0x375 ADD MSTORE DUP2 DUP2 PUSH2 0x7F8 ADD MSTORE DUP2 DUP2 PUSH2 0xBE9 ADD MSTORE DUP2 DUP2 PUSH2 0xE67 ADD MSTORE DUP2 DUP2 PUSH2 0x1326 ADD MSTORE DUP2 DUP2 PUSH2 0x182A ADD MSTORE DUP2 DUP2 PUSH2 0x1C66 ADD MSTORE DUP2 DUP2 PUSH2 0x1CCC ADD MSTORE PUSH2 0x1E9E ADD MSTORE PUSH1 0xA0 MLOAD DUP2 DUP2 DUP2 PUSH2 0x1227 ADD MSTORE PUSH2 0x18ED ADD MSTORE RETURN JUMPDEST PUSH1 0x40 MLOAD PUSH4 0x1E4FBDF7 PUSH1 0xE0 SHL DUP2 MSTORE PUSH1 0x0 PUSH1 0x4 DUP3 ADD MSTORE PUSH1 0x24 SWAP1 REVERT JUMPDEST PUSH1 0x0 DUP1 REVERT JUMPDEST PUSH4 0x4E487B71 PUSH1 0xE0 SHL PUSH1 0x0 MSTORE PUSH1 0x41 PUSH1 0x4 MSTORE PUSH1 0x24 PUSH1 0x0 REVERT JUMPDEST MLOAD SWAP1 PUSH1 0x1 PUSH1 0x1 PUSH1 0xA0 SHL SUB DUP3 AND DUP3 SUB PUSH3 0x140 JUMPI JUMP INVALID PUSH1 0x80 DUP1 PUSH1 0x40 MSTORE PUSH1 0x4 CALLDATASIZE LT ISZERO PUSH2 0x13 JUMPI PUSH1 0x0 DUP1 REVERT JUMPDEST PUSH1 0x0 CALLDATALOAD PUSH1 0xE0 SHR SWAP1 DUP2 PUSH4 0x4D38DD4 EQ PUSH2 0x205E JUMPI POP DUP1 PUSH4 0x29C6F60C EQ PUSH2 0x7D8 JUMPI DUP1 PUSH4 0x31AE8ABC EQ PUSH2 0x1ADC JUMPI DUP1 PUSH4 0x38D187DD EQ PUSH2 0x1ABE JUMPI DUP1 PUSH4 0x52FBA8EF EQ PUSH2 0x1256 JUMPI DUP1 PUSH4 0x53535DB9 EQ PUSH2 0x1211 JUMPI DUP1 PUSH4 0x5D4BC0CE EQ PUSH2 0x10EB JUMPI DUP1 PUSH4 0x623560AF EQ PUSH2 0xDD2 JUMPI DUP1 PUSH4 0x66FAB57C EQ PUSH2 0x7DD JUMPI DUP1 PUSH4 0x6AA42E4E EQ PUSH2 0xDB6 JUMPI DUP1 PUSH4 0x715018A6 EQ PUSH2 0xD59 JUMPI DUP1 PUSH4 0x8627DF46 EQ PUSH2 0xB48 JUMPI DUP1 PUSH4 0x8DA5CB5B EQ PUSH2 0xB1F JUMPI DUP1 PUSH4 0x95CCEA67 EQ PUSH2 0xAA0 JUMPI DUP1 PUSH4 0x97C0262A EQ PUSH2 0xA77 JUMPI DUP1 PUSH4 0x9DEF429D EQ PUSH2 0x88D JUMPI DUP1 PUSH4 0xA9F8623A EQ PUSH2 0x845 JUMPI DUP1 PUSH4 0xC2F306A5 EQ PUSH2 0x827 JUMPI DUP1 PUSH4 0xC54E44EB EQ PUSH2 0x7E2 JUMPI DUP1 PUSH4 0xCC0C3039 EQ PUSH2 0x7DD JUMPI DUP1 PUSH4 0xE444A278 EQ PUSH2 0x7D8 JUMPI DUP1 PUSH4 0xEE2C18BA EQ PUSH2 0x790 JUMPI DUP1 PUSH4 0xF29C940B EQ PUSH2 0x2CD JUMPI DUP1 PUSH4 0xF2FDE38B EQ PUSH2 0x244 JUMPI DUP1 PUSH4 0xF33B5541 EQ PUSH2 0x201 JUMPI PUSH4 0xF8626AF8 EQ PUSH2 0x13D JUMPI PUSH1 0x0 DUP1 REVERT JUMPDEST CALLVALUE PUSH2 0x1FC JUMPI PUSH1 0x20 CALLDATASIZE PUSH1 0x3 NOT ADD SLT PUSH2 0x1FC JUMPI PUSH1 0x4 CALLDATALOAD PUSH1 0x0 MSTORE PUSH1 0x4 PUSH1 0x20 MSTORE PUSH1 0x40 PUSH1 0x0 KECCAK256 DUP1 SLOAD PUSH1 0x1 DUP1 PUSH1 0xA0 SHL SUB PUSH1 0x1 DUP4 ADD SLOAD AND SWAP2 PUSH1 0xFF PUSH2 0x17C PUSH1 0x2 DUP4 ADD PUSH2 0x214D JUMP JUMPDEST PUSH2 0x188 PUSH1 0x3 DUP5 ADD PUSH2 0x214D JUMP JUMPDEST SWAP3 PUSH1 0x4 DUP2 ADD SLOAD SWAP4 PUSH2 0x1D2 PUSH1 0x5 DUP4 ADD SLOAD SWAP2 PUSH2 0x1C4 PUSH1 0x7 PUSH1 0x6 DUP7 ADD SLOAD SWAP6 ADD SLOAD SWAP6 PUSH1 0x40 MLOAD SWAP11 DUP12 SWAP11 DUP12 MSTORE PUSH1 0x20 DUP12 ADD MSTORE PUSH2 0x120 DUP1 PUSH1 0x40 DUP13 ADD MSTORE DUP11 ADD SWAP1 PUSH2 0x21F3 JUMP JUMPDEST SWAP1 DUP9 DUP3 SUB PUSH1 0x60 DUP11 ADD MSTORE PUSH2 0x21F3 JUMP JUMPDEST SWAP5 PUSH1 0x80 DUP8 ADD MSTORE PUSH1 0xA0 DUP7 ADD MSTORE PUSH1 0xC0 DUP6 ADD MSTORE DUP2 DUP2 AND ISZERO ISZERO PUSH1 0xE0 DUP6 ADD MSTORE PUSH1 0x8 SHR AND ISZERO ISZERO PUSH2 0x100 DUP4 ADD MSTORE SUB SWAP1 RETURN JUMPDEST PUSH1 0x0 DUP1 REVERT JUMPDEST CALLVALUE PUSH2 0x1FC JUMPI PUSH1 0x20 CALLDATASIZE PUSH1 0x3 NOT ADD SLT PUSH2 0x1FC JUMPI PUSH2 0x21A PUSH2 0x2272 JUMP JUMPDEST PUSH2 0x222 PUSH2 0x229E JUMP JUMPDEST PUSH1 0x2 DUP1 SLOAD PUSH1 0x1 PUSH1 0x1 PUSH1 0xA0 SHL SUB NOT AND PUSH1 0x1 PUSH1 0x1 PUSH1 0xA0 SHL SUB SWAP3 SWAP1 SWAP3 AND SWAP2 SWAP1 SWAP2 OR SWAP1 SSTORE STOP JUMPDEST CALLVALUE PUSH2 0x1FC JUMPI PUSH1 0x20 CALLDATASIZE PUSH1 0x3 NOT ADD SLT PUSH2 0x1FC JUMPI PUSH2 0x25D PUSH2 0x2272 JUMP JUMPDEST PUSH2 0x265 PUSH2 0x229E JUMP JUMPDEST PUSH1 0x1 PUSH1 0x1 PUSH1 0xA0 SHL SUB SWAP1 DUP2 AND SWAP1 DUP2 ISZERO PUSH2 0x2B4 JUMPI PUSH1 0x1 SLOAD DUP3 PUSH1 0x1 PUSH1 0x1 PUSH1 0x60 SHL SUB PUSH1 0xA0 SHL DUP3 AND OR PUSH1 0x1 SSTORE AND PUSH32 0x8BE0079C531659141344CD1FD0A4F28419497F9722A3DAAFE3B4186F6B6457E0 PUSH1 0x0 DUP1 LOG3 STOP JUMPDEST PUSH1 0x40 MLOAD PUSH4 0x1E4FBDF7 PUSH1 0xE0 SHL DUP2 MSTORE PUSH1 0x0 PUSH1 0x4 DUP3 ADD MSTORE PUSH1 0x24 SWAP1 REVERT JUMPDEST CALLVALUE PUSH2 0x1FC JUMPI PUSH1 0xA0 CALLDATASIZE PUSH1 0x3 NOT ADD SLT PUSH2 0x1FC JUMPI PUSH1 0x4 CALLDATALOAD PUSH1 0x1 PUSH1 0x1 PUSH1 0x40 SHL SUB DUP2 GT PUSH2 0x1FC JUMPI PUSH2 0x2FD SWAP1 CALLDATASIZE SWAP1 PUSH1 0x4 ADD PUSH2 0x20BD JUMP JUMPDEST PUSH1 0x24 CALLDATALOAD PUSH1 0x1 PUSH1 0x1 PUSH1 0x40 SHL SUB DUP2 GT PUSH2 0x1FC JUMPI PUSH2 0x31C SWAP1 CALLDATASIZE SWAP1 PUSH1 0x4 ADD PUSH2 0x20BD JUMP JUMPDEST PUSH1 0x84 CALLDATALOAD DUP1 ISZERO ISZERO DUP2 SUB PUSH2 0x1FC JUMPI PUSH2 0x330 PUSH2 0x234A JUMP JUMPDEST PUSH1 0x2 SLOAD PUSH1 0x40 MLOAD PUSH4 0x23B872DD PUSH1 0xE0 SHL DUP2 MSTORE CALLER PUSH1 0x4 DUP3 ADD MSTORE PUSH1 0x1 PUSH1 0x1 PUSH1 0xA0 SHL SUB SWAP2 DUP3 AND PUSH1 0x24 DUP3 ADD MSTORE PUSH9 0x15AF1D78B58C40000 PUSH1 0x44 DUP3 ADD MSTORE SWAP1 PUSH1 0x20 SWAP1 DUP3 SWAP1 PUSH1 0x64 SWAP1 DUP3 SWAP1 PUSH1 0x0 SWAP1 PUSH32 0x0 AND GAS CALL DUP1 ISZERO PUSH2 0x784 JUMPI PUSH2 0x3AF SWAP2 PUSH1 0x0 SWAP2 PUSH2 0x755 JUMPI JUMPDEST POP PUSH2 0x22E2 JUMP JUMPDEST PUSH1 0x8 SLOAD SWAP2 DUP2 ISZERO PUSH2 0x743 JUMPI PUSH1 0x0 SWAP1 JUMPDEST PUSH1 0x40 MLOAD SWAP5 PUSH2 0x120 DUP7 ADD DUP7 DUP2 LT PUSH1 0x1 PUSH1 0x1 PUSH1 0x40 SHL SUB DUP3 GT OR PUSH2 0x66D JUMPI PUSH1 0x40 MSTORE DUP5 DUP7 MSTORE CALLER PUSH1 0x20 DUP8 ADD MSTORE PUSH1 0x40 DUP7 ADD MSTORE PUSH1 0x60 DUP6 ADD MSTORE PUSH1 0x44 CALLDATALOAD PUSH1 0x80 DUP6 ADD MSTORE PUSH1 0x0 PUSH1 0xA0 DUP6 ADD MSTORE PUSH1 0xC0 DUP5 ADD MSTORE PUSH1 0x1 PUSH1 0xE0 DUP5 ADD MSTORE ISZERO ISZERO PUSH2 0x100 DUP4 ADD MSTORE PUSH1 0x0 MSTORE PUSH1 0x4 PUSH1 0x20 MSTORE PUSH1 0x40 PUSH1 0x0 KECCAK256 DUP2 MLOAD DUP2 SSTORE PUSH1 0x1 DUP2 ADD PUSH1 0x1 DUP1 PUSH1 0xA0 SHL SUB PUSH1 0x20 DUP5 ADD MLOAD AND PUSH1 0x1 PUSH1 0x1 PUSH1 0x60 SHL SUB PUSH1 0xA0 SHL DUP3 SLOAD AND OR SWAP1 SSTORE PUSH1 0x40 DUP3 ADD MLOAD SWAP2 DUP3 MLOAD PUSH1 0x1 PUSH1 0x1 PUSH1 0x40 SHL SUB DUP2 GT PUSH2 0x66D JUMPI PUSH2 0x467 PUSH1 0x2 DUP5 ADD SLOAD PUSH2 0x2113 JUMP JUMPDEST PUSH1 0x1F DUP2 GT PUSH2 0x6FC JUMPI JUMPDEST POP PUSH1 0x20 PUSH1 0x1F DUP3 GT PUSH1 0x1 EQ PUSH2 0x68E JUMPI DUP2 SWAP3 SWAP4 SWAP5 PUSH1 0x0 SWAP3 PUSH2 0x683 JUMPI JUMPDEST POP POP DUP2 PUSH1 0x1 SHL SWAP2 PUSH1 0x0 NOT SWAP1 PUSH1 0x3 SHL SHR NOT AND OR PUSH1 0x2 DUP4 ADD SSTORE JUMPDEST PUSH1 0x60 DUP2 ADD MLOAD DUP1 MLOAD SWAP1 PUSH1 0x1 PUSH1 0x1 PUSH1 0x40 SHL SUB DUP3 GT PUSH2 0x66D JUMPI PUSH2 0x4C5 PUSH1 0x3 DUP6 ADD SLOAD PUSH2 0x2113 JUMP JUMPDEST PUSH1 0x1F DUP2 GT PUSH2 0x626 JUMPI JUMPDEST POP PUSH1 0x20 SWAP1 PUSH1 0x1F DUP4 GT PUSH1 0x1 EQ PUSH2 0x5AD JUMPI SWAP4 DUP3 PUSH2 0x100 SWAP4 PUSH1 0x7 SWAP4 PUSH2 0x55E SWAP8 PUSH1 0x0 SWAP3 PUSH2 0x5A2 JUMPI JUMPDEST POP POP DUP2 PUSH1 0x1 SHL SWAP2 PUSH1 0x0 NOT SWAP1 PUSH1 0x3 SHL SHR NOT AND OR PUSH1 0x3 DUP3 ADD SSTORE JUMPDEST PUSH1 0x80 DUP5 ADD MLOAD PUSH1 0x4 DUP3 ADD SSTORE PUSH1 0xA0 DUP5 ADD MLOAD PUSH1 0x5 DUP3 ADD SSTORE PUSH1 0xC0 DUP5 ADD MLOAD PUSH1 0x6 DUP3 ADD SSTORE ADD SWAP2 PUSH2 0x546 PUSH1 0xE0 DUP3 ADD MLOAD ISZERO ISZERO DUP5 SWAP1 PUSH1 0xFF DUP1 NOT DUP4 SLOAD AND SWAP2 ISZERO ISZERO AND OR SWAP1 SSTORE JUMP JUMPDEST ADD MLOAD DUP2 SLOAD PUSH2 0xFF00 NOT AND SWAP1 ISZERO ISZERO PUSH1 0x8 SHL PUSH2 0xFF00 AND OR SWAP1 SSTORE JUMP JUMPDEST PUSH2 0x598 PUSH1 0x8 SLOAD PUSH1 0x40 MLOAD PUSH1 0x44 CALLDATALOAD DUP2 MSTORE DUP2 PUSH32 0xDD17F6C68D84FB01706D9F9E9ED1A2267D9171BFF4C61D024F503D6C9CCB931C PUSH1 0x20 CALLER SWAP4 LOG3 PUSH2 0x233B JUMP JUMPDEST PUSH1 0x8 SSTORE PUSH1 0x1 PUSH1 0x0 SSTORE STOP JUMPDEST ADD MLOAD SWAP1 POP DUP8 DUP1 PUSH2 0x4F2 JUMP JUMPDEST SWAP1 PUSH1 0x3 DUP6 ADD PUSH1 0x0 MSTORE PUSH1 0x20 PUSH1 0x0 KECCAK256 SWAP2 PUSH1 0x0 JUMPDEST PUSH1 0x1F NOT DUP6 AND DUP2 LT PUSH2 0x60E JUMPI POP DUP4 PUSH1 0x7 SWAP4 PUSH2 0x55E SWAP8 SWAP4 PUSH1 0x1 SWAP4 PUSH2 0x100 SWAP8 PUSH1 0x1F NOT DUP2 AND LT PUSH2 0x5F5 JUMPI JUMPDEST POP POP POP DUP2 SHL ADD PUSH1 0x3 DUP3 ADD SSTORE PUSH2 0x50A JUMP JUMPDEST ADD MLOAD PUSH1 0x0 NOT PUSH1 0xF8 DUP5 PUSH1 0x3 SHL AND SHR NOT AND SWAP1 SSTORE DUP8 DUP1 DUP1 PUSH2 0x5E5 JUMP JUMPDEST SWAP2 SWAP3 PUSH1 0x20 PUSH1 0x1 DUP2 SWAP3 DUP7 DUP6 ADD MLOAD DUP2 SSTORE ADD SWAP5 ADD SWAP3 ADD PUSH2 0x5BE JUMP JUMPDEST PUSH1 0x3 DUP6 ADD PUSH1 0x0 MSTORE PUSH1 0x20 PUSH1 0x0 KECCAK256 PUSH1 0x1F DUP5 ADD PUSH1 0x5 SHR DUP2 ADD PUSH1 0x20 DUP6 LT PUSH2 0x666 JUMPI JUMPDEST PUSH1 0x1F DUP4 ADD PUSH1 0x5 SHR DUP3 ADD DUP2 LT PUSH2 0x65A JUMPI POP POP PUSH2 0x4CE JUMP JUMPDEST PUSH1 0x0 DUP2 SSTORE PUSH1 0x1 ADD PUSH2 0x644 JUMP JUMPDEST POP DUP1 PUSH2 0x644 JUMP JUMPDEST PUSH4 0x4E487B71 PUSH1 0xE0 SHL PUSH1 0x0 MSTORE PUSH1 0x41 PUSH1 0x4 MSTORE PUSH1 0x24 PUSH1 0x0 REVERT JUMPDEST ADD MLOAD SWAP1 POP DUP5 DUP1 PUSH2 0x48A JUMP JUMPDEST PUSH1 0x2 DUP5 ADD PUSH1 0x0 MSTORE PUSH1 0x20 PUSH1 0x0 KECCAK256 SWAP1 PUSH1 0x0 JUMPDEST PUSH1 0x1F NOT DUP5 AND DUP2 LT PUSH2 0x6E4 JUMPI POP PUSH1 0x1 SWAP4 SWAP5 SWAP6 DUP4 PUSH1 0x1F NOT DUP2 AND LT PUSH2 0x6CB JUMPI JUMPDEST POP POP POP DUP2 SHL ADD PUSH1 0x2 DUP4 ADD SSTORE PUSH2 0x4A2 JUMP JUMPDEST ADD MLOAD PUSH1 0x0 NOT PUSH1 0xF8 DUP5 PUSH1 0x3 SHL AND SHR NOT AND SWAP1 SSTORE DUP5 DUP1 DUP1 PUSH2 0x6BB JUMP JUMPDEST SWAP1 SWAP2 PUSH1 0x20 PUSH1 0x1 DUP2 SWAP3 DUP6 DUP11 ADD MLOAD DUP2 SSTORE ADD SWAP4 ADD SWAP2 ADD PUSH2 0x69E JUMP JUMPDEST PUSH1 0x2 DUP5 ADD PUSH1 0x0 MSTORE PUSH1 0x20 PUSH1 0x0 KECCAK256 PUSH1 0x1F DUP4 ADD PUSH1 0x5 SHR DUP2 ADD PUSH1 0x20 DUP5 LT PUSH2 0x73C JUMPI JUMPDEST PUSH1 0x1F DUP4 ADD PUSH1 0x5 SHR DUP3 ADD DUP2 LT PUSH2 0x730 JUMPI POP POP PUSH2 0x470 JUMP JUMPDEST PUSH1 0x0 DUP2 SSTORE PUSH1 0x1 ADD PUSH2 0x71A JUMP JUMPDEST POP DUP1 PUSH2 0x71A JUMP JUMPDEST PUSH2 0x74F PUSH1 0x64 CALLDATALOAD TIMESTAMP PUSH2 0x232E JUMP JUMPDEST SWAP1 PUSH2 0x3BD JUMP JUMPDEST PUSH2 0x777 SWAP2 POP PUSH1 0x20 RETURNDATASIZE PUSH1 0x20 GT PUSH2 0x77D JUMPI JUMPDEST PUSH2 0x76F DUP2 DUP4 PUSH2 0x209C JUMP JUMPDEST DUP2 ADD SWAP1 PUSH2 0x22CA JUMP JUMPDEST DUP6 PUSH2 0x3A9 JUMP JUMPDEST POP RETURNDATASIZE PUSH2 0x765 JUMP JUMPDEST PUSH1 0x40 MLOAD RETURNDATASIZE PUSH1 0x0 DUP3 RETURNDATACOPY RETURNDATASIZE SWAP1 REVERT JUMPDEST CALLVALUE PUSH2 0x1FC JUMPI PUSH1 0x40 CALLDATASIZE PUSH1 0x3 NOT ADD SLT PUSH2 0x1FC JUMPI PUSH2 0x7A9 PUSH2 0x2288 JUMP JUMPDEST PUSH1 0x4 CALLDATALOAD PUSH1 0x0 MSTORE PUSH1 0x5 PUSH1 0x20 MSTORE PUSH1 0x40 PUSH1 0x0 KECCAK256 SWAP1 PUSH1 0x1 DUP1 PUSH1 0xA0 SHL SUB AND PUSH1 0x0 MSTORE PUSH1 0x20 MSTORE PUSH1 0x20 PUSH1 0x40 PUSH1 0x0 KECCAK256 SLOAD PUSH1 0x40 MLOAD SWAP1 DUP2 MSTORE RETURN JUMPDEST PUSH2 0x2078 JUMP JUMPDEST PUSH2 0x2256 JUMP JUMPDEST CALLVALUE PUSH2 0x1FC JUMPI PUSH1 0x0 CALLDATASIZE PUSH1 0x3 NOT ADD SLT PUSH2 0x1FC JUMPI PUSH1 0x40 MLOAD PUSH32 0x0 PUSH1 0x1 PUSH1 0x1 PUSH1 0xA0 SHL SUB AND DUP2 MSTORE PUSH1 0x20 SWAP1 RETURN JUMPDEST CALLVALUE PUSH2 0x1FC JUMPI PUSH1 0x0 CALLDATASIZE PUSH1 0x3 NOT ADD SLT PUSH2 0x1FC JUMPI PUSH1 0x20 PUSH1 0x7 SLOAD PUSH1 0x40 MLOAD SWAP1 DUP2 MSTORE RETURN JUMPDEST CALLVALUE PUSH2 0x1FC JUMPI PUSH1 0x40 CALLDATASIZE PUSH1 0x3 NOT ADD SLT PUSH2 0x1FC JUMPI PUSH2 0x85E PUSH2 0x2288 JUMP JUMPDEST PUSH1 0x4 CALLDATALOAD PUSH1 0x0 MSTORE PUSH1 0x6 PUSH1 0x20 MSTORE PUSH1 0x40 PUSH1 0x0 KECCAK256 SWAP1 PUSH1 0x1 DUP1 PUSH1 0xA0 SHL SUB AND PUSH1 0x0 MSTORE PUSH1 0x20 MSTORE PUSH1 0x20 PUSH1 0x40 PUSH1 0x0 KECCAK256 SLOAD PUSH1 0x40 MLOAD SWAP1 DUP2 MSTORE RETURN JUMPDEST CALLVALUE PUSH2 0x1FC JUMPI PUSH1 0x20 DUP1 PUSH1 0x3 NOT CALLDATASIZE ADD SLT PUSH2 0x1FC JUMPI PUSH1 0x4 CALLDATALOAD DUP1 PUSH1 0x0 MSTORE PUSH1 0x3 DUP3 MSTORE PUSH1 0x40 PUSH1 0x0 KECCAK256 SWAP2 PUSH1 0x9 DUP4 ADD SWAP1 DUP2 SLOAD SWAP2 PUSH2 0x8C4 PUSH1 0xFF DUP5 AND PUSH2 0x236D JUMP JUMPDEST PUSH1 0x8 DUP6 ADD SLOAD TIMESTAMP LT DUP1 ISZERO SWAP1 PUSH2 0xA65 JUMPI JUMPDEST ISZERO PUSH2 0xA20 JUMPI PUSH1 0x1 DUP6 ADD SLOAD PUSH1 0x1 PUSH1 0x1 PUSH1 0xA0 SHL SUB SWAP4 SWAP1 DUP5 AND CALLER EQ DUP1 ISZERO PUSH2 0xA13 JUMPI JUMPDEST ISZERO PUSH2 0x9DD JUMPI PUSH2 0xFFFF NOT AND PUSH2 0x100 OR DUP2 SSTORE PUSH1 0x7 DUP6 ADD SLOAD ISZERO DUP1 ISZERO PUSH2 0x946 JUMPI JUMPDEST POP PUSH32 0x3F8A70EBC2357528FFBD62DF52804D67D18CB2DC04D8A034C9C932E982D2CF37 SWAP3 PUSH1 0x4 SWAP2 SLOAD PUSH1 0x10 SHR AND SWAP5 ADD SLOAD PUSH1 0x40 MLOAD SWAP1 DUP2 MSTORE LOG3 STOP JUMPDEST PUSH1 0x40 MLOAD TIMESTAMP DUP5 DUP3 ADD MSTORE PREVRANDAO PUSH1 0x40 DUP3 ADD MSTORE NUMBER PUSH1 0x60 DUP3 ADD MSTORE DUP6 PUSH1 0x80 DUP3 ADD MSTORE PUSH1 0x80 DUP2 MSTORE PUSH1 0xA0 DUP2 ADD SWAP1 DUP2 LT PUSH1 0x1 PUSH1 0x1 PUSH1 0x40 SHL SUB DUP3 GT OR PUSH2 0x66D JUMPI PUSH1 0x40 MSTORE PUSH2 0x9C7 JUMPI DUP1 SLOAD PUSH3 0x10000 PUSH1 0x1 PUSH1 0xB0 SHL SUB NOT AND CALLER PUSH1 0x10 SHL PUSH3 0x10000 PUSH1 0x1 PUSH1 0xB0 SHL SUB AND OR DUP2 SSTORE PUSH32 0x3F8A70EBC2357528FFBD62DF52804D67D18CB2DC04D8A034C9C932E982D2CF37 PUSH2 0x90F JUMP JUMPDEST PUSH4 0x4E487B71 PUSH1 0xE0 SHL PUSH1 0x0 MSTORE PUSH1 0x12 PUSH1 0x4 MSTORE PUSH1 0x24 PUSH1 0x0 REVERT JUMPDEST PUSH1 0x40 MLOAD PUSH3 0x461BCD PUSH1 0xE5 SHL DUP2 MSTORE PUSH1 0x4 DUP2 ADD DUP5 SWAP1 MSTORE PUSH1 0xE PUSH1 0x24 DUP3 ADD MSTORE PUSH14 0x139BDD08185D5D1A1BDC9A5E9959 PUSH1 0x92 SHL PUSH1 0x44 DUP3 ADD MSTORE PUSH1 0x64 SWAP1 REVERT JUMPDEST POP DUP4 PUSH1 0x1 SLOAD AND CALLER EQ PUSH2 0x8F2 JUMP JUMPDEST PUSH1 0x40 MLOAD PUSH3 0x461BCD PUSH1 0xE5 SHL DUP2 MSTORE PUSH1 0x4 DUP2 ADD DUP4 SWAP1 MSTORE PUSH1 0x17 PUSH1 0x24 DUP3 ADD MSTORE PUSH32 0x526166666C65206E6F7420726561647920746F20656E64000000000000000000 PUSH1 0x44 DUP3 ADD MSTORE PUSH1 0x64 SWAP1 REVERT JUMPDEST POP PUSH1 0x7 DUP6 ADD SLOAD PUSH1 0x6 DUP7 ADD SLOAD GT ISZERO PUSH2 0x8D3 JUMP JUMPDEST CALLVALUE PUSH2 0x1FC JUMPI PUSH1 0x0 CALLDATASIZE PUSH1 0x3 NOT ADD SLT PUSH2 0x1FC JUMPI PUSH1 0x2 SLOAD PUSH1 0x40 MLOAD PUSH1 0x1 PUSH1 0x1 PUSH1 0xA0 SHL SUB SWAP1 SWAP2 AND DUP2 MSTORE PUSH1 0x20 SWAP1 RETURN JUMPDEST CALLVALUE PUSH2 0x1FC JUMPI PUSH1 0x40 CALLDATASIZE PUSH1 0x3 NOT ADD SLT PUSH2 0x1FC JUMPI PUSH2 0xAB9 PUSH2 0x2272 JUMP JUMPDEST PUSH2 0xAC1 PUSH2 0x229E JUMP JUMPDEST PUSH1 0x1 SLOAD PUSH1 0x40 MLOAD PUSH4 0xA9059CBB PUSH1 0xE0 SHL DUP2 MSTORE PUSH1 0x1 PUSH1 0x1 PUSH1 0xA0 SHL SUB SWAP2 DUP3 AND PUSH1 0x4 DUP3 ADD MSTORE PUSH1 0x24 DUP1 CALLDATALOAD SWAP1 DUP3 ADD MSTORE SWAP2 PUSH1 0x20 SWAP2 DUP4 SWAP2 PUSH1 0x44 SWAP2 DUP4 SWAP2 PUSH1 0x0 SWAP2 AND GAS CALL DUP1 ISZERO PUSH2 0x784 JUMPI PUSH2 0xB06 JUMPI STOP JUMPDEST PUSH2 0xB1D SWAP1 PUSH1 0x20 RETURNDATASIZE DUP2 GT PUSH2 0x77D JUMPI PUSH2 0x76F DUP2 DUP4 PUSH2 0x209C JUMP JUMPDEST STOP JUMPDEST CALLVALUE PUSH2 0x1FC JUMPI PUSH1 0x0 CALLDATASIZE PUSH1 0x3 NOT ADD SLT PUSH2 0x1FC JUMPI PUSH1 0x1 SLOAD PUSH1 0x40 MLOAD PUSH1 0x1 PUSH1 0x1 PUSH1 0xA0 SHL SUB SWAP1 SWAP2 AND DUP2 MSTORE PUSH1 0x20 SWAP1 RETURN JUMPDEST CALLVALUE PUSH2 0x1FC JUMPI PUSH2 0xB56 CALLDATASIZE PUSH2 0x2240 JUMP JUMPDEST SWAP1 PUSH2 0xB5F PUSH2 0x234A JUMP JUMPDEST DUP1 PUSH1 0x0 MSTORE PUSH1 0x20 PUSH1 0x3 DUP2 MSTORE PUSH1 0x40 PUSH1 0x0 KECCAK256 PUSH2 0xB7E PUSH1 0xFF PUSH1 0x9 DUP4 ADD SLOAD AND PUSH2 0x236D JUMP JUMPDEST PUSH1 0x8 DUP2 ADD SLOAD TIMESTAMP LT ISZERO PUSH2 0xD25 JUMPI PUSH1 0x7 DUP2 ADD SWAP1 PUSH2 0xB9A DUP6 DUP4 SLOAD PUSH2 0x232E JUMP JUMPDEST PUSH1 0x6 DUP3 ADD SLOAD LT PUSH2 0xCE0 JUMPI DUP3 PUSH2 0xBB6 DUP7 PUSH1 0x5 PUSH2 0xBE3 SWAP5 ADD SLOAD PUSH2 0x23AD JUMP JUMPDEST PUSH1 0x40 MLOAD PUSH4 0x23B872DD PUSH1 0xE0 SHL DUP2 MSTORE CALLER PUSH1 0x4 DUP3 ADD MSTORE ADDRESS PUSH1 0x24 DUP3 ADD MSTORE PUSH1 0x44 DUP2 ADD SWAP2 SWAP1 SWAP2 MSTORE SWAP2 DUP3 SWAP1 DUP2 SWAP1 PUSH1 0x64 DUP3 ADD SWAP1 JUMP JUMPDEST SUB DUP2 PUSH1 0x0 PUSH32 0x0 PUSH1 0x1 PUSH1 0x1 PUSH1 0xA0 SHL SUB AND GAS CALL SWAP1 DUP2 ISZERO PUSH2 0x784 JUMPI PUSH1 0x0 SWAP2 PUSH2 0xCC3 JUMPI JUMPDEST POP ISZERO PUSH2 0xC8D JUMPI SWAP1 PUSH32 0xDBAAF4C87CE30816C961A81D110622A3227EDE77953D4383D514FF88AB2E0FD3 SWAP2 DUP4 PUSH1 0x0 MSTORE PUSH1 0x5 DUP3 MSTORE PUSH1 0x40 PUSH1 0x0 KECCAK256 CALLER PUSH1 0x0 MSTORE DUP3 MSTORE PUSH1 0x40 PUSH1 0x0 KECCAK256 PUSH2 0xC6E DUP7 DUP3 SLOAD PUSH2 0x232E JUMP JUMPDEST SWAP1 SSTORE PUSH2 0xC7B DUP6 DUP3 SLOAD PUSH2 0x232E JUMP JUMPDEST SWAP1 SSTORE PUSH1 0x40 MLOAD SWAP4 DUP5 MSTORE CALLER SWAP4 LOG3 PUSH1 0x1 PUSH1 0x0 SSTORE STOP JUMPDEST PUSH1 0x40 MLOAD PUSH3 0x461BCD PUSH1 0xE5 SHL DUP2 MSTORE PUSH1 0x4 DUP2 ADD DUP4 SWAP1 MSTORE PUSH1 0xE PUSH1 0x24 DUP3 ADD MSTORE PUSH14 0x14185E5B595B9D0819985A5B1959 PUSH1 0x92 SHL PUSH1 0x44 DUP3 ADD MSTORE PUSH1 0x64 SWAP1 REVERT JUMPDEST PUSH2 0xCDA SWAP2 POP DUP4 RETURNDATASIZE DUP6 GT PUSH2 0x77D JUMPI PUSH2 0x76F DUP2 DUP4 PUSH2 0x209C JUMP JUMPDEST DUP6 PUSH2 0xC22 JUMP JUMPDEST PUSH1 0x40 MLOAD PUSH3 0x461BCD PUSH1 0xE5 SHL DUP2 MSTORE PUSH1 0x4 DUP2 ADD DUP5 SWAP1 MSTORE PUSH1 0x1C PUSH1 0x24 DUP3 ADD MSTORE PUSH32 0x4E6F7420656E6F756768207469636B65747320617661696C61626C6500000000 PUSH1 0x44 DUP3 ADD MSTORE PUSH1 0x64 SWAP1 REVERT JUMPDEST PUSH1 0x40 MLOAD PUSH3 0x461BCD PUSH1 0xE5 SHL DUP2 MSTORE PUSH1 0x4 DUP2 ADD DUP4 SWAP1 MSTORE PUSH1 0xC PUSH1 0x24 DUP3 ADD MSTORE PUSH12 0x149859999B1948195B991959 PUSH1 0xA2 SHL PUSH1 0x44 DUP3 ADD MSTORE PUSH1 0x64 SWAP1 REVERT JUMPDEST CALLVALUE PUSH2 0x1FC JUMPI PUSH1 0x0 CALLDATASIZE PUSH1 0x3 NOT ADD SLT PUSH2 0x1FC JUMPI PUSH2 0xD72 PUSH2 0x229E JUMP JUMPDEST PUSH1 0x1 DUP1 SLOAD PUSH1 0x1 PUSH1 0x1 PUSH1 0xA0 SHL SUB NOT DUP2 AND SWAP1 SWAP2 SSTORE PUSH1 0x0 SWAP1 PUSH1 0x1 PUSH1 0x1 PUSH1 0xA0 SHL SUB AND PUSH32 0x8BE0079C531659141344CD1FD0A4F28419497F9722A3DAAFE3B4186F6B6457E0 DUP3 DUP1 LOG3 STOP JUMPDEST CALLVALUE PUSH2 0x1FC JUMPI PUSH1 0x0 CALLDATASIZE PUSH1 0x3 NOT ADD SLT PUSH2 0x1FC JUMPI PUSH1 0x20 PUSH1 0x40 MLOAD PUSH1 0xA DUP2 MSTORE RETURN JUMPDEST CALLVALUE PUSH2 0x1FC JUMPI PUSH2 0xDE0 CALLDATASIZE PUSH2 0x2240 JUMP JUMPDEST SWAP1 PUSH2 0xDE9 PUSH2 0x234A JUMP JUMPDEST DUP1 PUSH1 0x0 MSTORE PUSH1 0x20 PUSH1 0x4 DUP2 MSTORE PUSH1 0x40 PUSH1 0x0 KECCAK256 PUSH1 0x7 DUP2 ADD SLOAD PUSH1 0xFF DUP2 AND ISZERO PUSH2 0x10B0 JUMPI DUP5 ISZERO PUSH2 0x106B JUMPI PUSH1 0x8 SHR PUSH1 0xFF AND ISZERO PUSH2 0x1023 JUMPI JUMPDEST DUP4 PUSH1 0x1 SHL DUP5 DUP2 DIV PUSH1 0x2 SUB PUSH2 0x100D JUMPI PUSH1 0x64 SWAP1 DIV PUSH2 0xE34 DUP2 DUP7 PUSH2 0x23C0 JUMP JUMPDEST PUSH1 0x1 DUP4 ADD SLOAD PUSH1 0x40 MLOAD PUSH4 0x23B872DD PUSH1 0xE0 SHL DUP1 DUP3 MSTORE CALLER PUSH1 0x4 DUP4 ADD MSTORE PUSH1 0x1 PUSH1 0x1 PUSH1 0xA0 SHL SUB SWAP3 DUP4 AND PUSH1 0x24 DUP4 ADD MSTORE PUSH1 0x44 DUP3 ADD SWAP4 SWAP1 SWAP4 MSTORE PUSH32 0x0 DUP3 AND SWAP3 SWAP2 SWAP1 DUP7 DUP2 PUSH1 0x64 DUP2 PUSH1 0x0 DUP9 GAS CALL SWAP1 DUP2 ISZERO PUSH2 0x784 JUMPI PUSH1 0x0 SWAP2 PUSH2 0xFF0 JUMPI JUMPDEST POP ISZERO PUSH2 0xFAB JUMPI PUSH1 0x2 SLOAD PUSH1 0x40 MLOAD SWAP3 DUP4 MSTORE CALLER PUSH1 0x4 DUP5 ADD MSTORE AND PUSH1 0x1 PUSH1 0x1 PUSH1 0xA0 SHL SUB AND PUSH1 0x24 DUP3 ADD MSTORE PUSH1 0x44 DUP2 ADD SWAP3 SWAP1 SWAP3 MSTORE DUP4 SWAP1 DUP3 SWAP1 PUSH1 0x64 SWAP1 DUP3 SWAP1 PUSH1 0x0 SWAP1 GAS CALL SWAP1 DUP2 ISZERO PUSH2 0x784 JUMPI PUSH1 0x0 SWAP2 PUSH2 0xF8E JUMPI JUMPDEST POP ISZERO PUSH2 0xF49 JUMPI SWAP1 PUSH1 0x5 PUSH32 0xE555DA28BDB778F65D22794D88927EBAECA03F7DE9D1B7D39245BC8FB5CA078A SWAP3 DUP5 PUSH1 0x0 MSTORE PUSH1 0x6 DUP4 MSTORE PUSH1 0x40 PUSH1 0x0 KECCAK256 CALLER PUSH1 0x0 MSTORE DUP4 MSTORE PUSH1 0x40 PUSH1 0x0 KECCAK256 PUSH2 0xF3B DUP8 DUP3 SLOAD PUSH2 0x232E JUMP JUMPDEST SWAP1 SSTORE ADD PUSH2 0xC7B DUP6 DUP3 SLOAD PUSH2 0x232E JUMP JUMPDEST PUSH1 0x40 MLOAD PUSH3 0x461BCD PUSH1 0xE5 SHL DUP2 MSTORE PUSH1 0x4 DUP2 ADD DUP4 SWAP1 MSTORE PUSH1 0x1A PUSH1 0x24 DUP3 ADD MSTORE PUSH32 0x436F6D6D697373696F6E207472616E73666572206661696C6564000000000000 PUSH1 0x44 DUP3 ADD MSTORE PUSH1 0x64 SWAP1 REVERT JUMPDEST PUSH2 0xFA5 SWAP2 POP DUP4 RETURNDATASIZE DUP6 GT PUSH2 0x77D JUMPI PUSH2 0x76F DUP2 DUP4 PUSH2 0x209C JUMP JUMPDEST DUP6 PUSH2 0xEED JUMP JUMPDEST PUSH1 0x40 MLOAD PUSH3 0x461BCD PUSH1 0xE5 SHL DUP2 MSTORE PUSH1 0x4 DUP2 ADD DUP8 SWAP1 MSTORE PUSH1 0x18 PUSH1 0x24 DUP3 ADD MSTORE PUSH32 0x446F6E6174696F6E207472616E73666572206661696C65640000000000000000 PUSH1 0x44 DUP3 ADD MSTORE PUSH1 0x64 SWAP1 REVERT JUMPDEST PUSH2 0x1007 SWAP2 POP DUP8 RETURNDATASIZE DUP10 GT PUSH2 0x77D JUMPI PUSH2 0x76F DUP2 DUP4 PUSH2 0x209C JUMP JUMPDEST DUP10 PUSH2 0xEA4 JUMP JUMPDEST PUSH4 0x4E487B71 PUSH1 0xE0 SHL PUSH1 0x0 MSTORE PUSH1 0x11 PUSH1 0x4 MSTORE PUSH1 0x24 PUSH1 0x0 REVERT JUMPDEST PUSH1 0x6 DUP2 ADD SLOAD TIMESTAMP LT PUSH2 0xE18 JUMPI PUSH1 0x40 MLOAD PUSH3 0x461BCD PUSH1 0xE5 SHL DUP2 MSTORE PUSH1 0x4 DUP2 ADD DUP4 SWAP1 MSTORE PUSH1 0x15 PUSH1 0x24 DUP3 ADD MSTORE PUSH21 0x111BDB985D1A5BDB881C195C9A5BD908195B991959 PUSH1 0x5A SHL PUSH1 0x44 DUP3 ADD MSTORE PUSH1 0x64 SWAP1 REVERT JUMPDEST PUSH1 0x40 MLOAD PUSH3 0x461BCD PUSH1 0xE5 SHL DUP2 MSTORE PUSH1 0x4 DUP2 ADD DUP5 SWAP1 MSTORE PUSH1 0x1D PUSH1 0x24 DUP3 ADD MSTORE PUSH32 0x416D6F756E74206D7573742062652067726561746572207468616E2030000000 PUSH1 0x44 DUP3 ADD MSTORE PUSH1 0x64 SWAP1 REVERT JUMPDEST PUSH1 0x40 MLOAD PUSH3 0x461BCD PUSH1 0xE5 SHL DUP2 MSTORE PUSH1 0x4 DUP2 ADD DUP5 SWAP1 MSTORE PUSH1 0x13 PUSH1 0x24 DUP3 ADD MSTORE PUSH19 0x446F6E6174696F6E206E6F7420616374697665 PUSH1 0x68 SHL PUSH1 0x44 DUP3 ADD MSTORE PUSH1 0x64 SWAP1 REVERT JUMPDEST CALLVALUE PUSH2 0x1FC JUMPI PUSH1 0x20 CALLDATASIZE PUSH1 0x3 NOT ADD SLT PUSH2 0x1FC JUMPI PUSH1 0x4 CALLDATALOAD PUSH1 0x0 SWAP1 DUP2 MSTORE PUSH1 0x3 PUSH1 0x20 MSTORE PUSH1 0x40 SWAP1 KECCAK256 DUP1 SLOAD PUSH1 0x1 DUP3 ADD SLOAD PUSH1 0x1 PUSH1 0x1 PUSH1 0xA0 SHL SUB SWAP1 DUP2 AND SWAP3 SWAP1 PUSH2 0x112D PUSH1 0x2 DUP4 ADD PUSH2 0x214D JUMP JUMPDEST PUSH2 0x1139 PUSH1 0x3 DUP5 ADD PUSH2 0x214D JUMP JUMPDEST SWAP3 PUSH1 0x4 DUP2 ADD SLOAD SWAP4 PUSH1 0x5 DUP3 ADD SLOAD PUSH1 0x6 DUP4 ADD SLOAD SWAP1 PUSH2 0x1190 PUSH1 0x7 DUP6 ADD SLOAD SWAP4 PUSH2 0x1182 PUSH1 0x9 PUSH1 0x8 DUP9 ADD SLOAD SWAP8 ADD SLOAD SWAP8 PUSH1 0x40 MLOAD SWAP13 DUP14 SWAP13 DUP14 MSTORE PUSH1 0x20 DUP14 ADD MSTORE PUSH1 0x40 DUP13 PUSH2 0x200 SWAP2 DUP3 SWAP2 ADD MSTORE DUP13 ADD SWAP1 PUSH2 0x21F3 JUMP JUMPDEST SWAP1 DUP11 DUP3 SUB PUSH1 0x60 DUP13 ADD MSTORE PUSH2 0x21F3 JUMP JUMPDEST SWAP7 PUSH1 0x80 DUP10 ADD MSTORE PUSH1 0xA0 DUP9 ADD MSTORE PUSH1 0xC0 DUP8 ADD MSTORE PUSH1 0xE0 DUP7 ADD MSTORE PUSH2 0x100 DUP6 ADD MSTORE PUSH1 0xFF SWAP2 DUP3 DUP3 AND ISZERO ISZERO PUSH2 0x120 DUP7 ADD MSTORE DUP3 DUP3 PUSH1 0x8 SHR AND ISZERO ISZERO PUSH2 0x140 DUP7 ADD MSTORE DUP2 PUSH1 0x10 SHR AND PUSH2 0x160 DUP6 ADD MSTORE PUSH2 0x11E5 PUSH2 0x180 DUP6 ADD DUP4 DUP4 PUSH1 0xB0 SHR AND PUSH2 0x2233 JUMP JUMPDEST DUP2 DUP2 PUSH1 0xB8 SHR AND ISZERO ISZERO PUSH2 0x1A0 DUP6 ADD MSTORE DUP2 DUP2 PUSH1 0xC0 SHR AND ISZERO ISZERO PUSH2 0x1C0 DUP6 ADD MSTORE PUSH1 0xC8 SHR AND ISZERO ISZERO PUSH2 0x1E0 DUP4 ADD MSTORE SUB SWAP1 RETURN JUMPDEST CALLVALUE PUSH2 0x1FC JUMPI PUSH1 0x0 CALLDATASIZE PUSH1 0x3 NOT ADD SLT PUSH2 0x1FC JUMPI PUSH1 0x40 MLOAD PUSH32 0x0 PUSH1 0x1 PUSH1 0x1 PUSH1 0xA0 SHL SUB AND DUP2 MSTORE PUSH1 0x20 SWAP1 RETURN JUMPDEST CALLVALUE PUSH2 0x1FC JUMPI PUSH1 0xE0 CALLDATASIZE PUSH1 0x3 NOT ADD SLT PUSH2 0x1FC JUMPI PUSH1 0x4 CALLDATALOAD PUSH1 0x1 PUSH1 0x1 PUSH1 0x40 SHL SUB DUP2 GT PUSH2 0x1FC JUMPI PUSH2 0x1286 SWAP1 CALLDATASIZE SWAP1 PUSH1 0x4 ADD PUSH2 0x20BD JUMP JUMPDEST PUSH1 0x24 CALLDATALOAD PUSH1 0x1 PUSH1 0x1 PUSH1 0x40 SHL SUB DUP2 GT PUSH2 0x1FC JUMPI PUSH2 0x12A5 SWAP1 CALLDATASIZE SWAP1 PUSH1 0x4 ADD PUSH2 0x20BD JUMP JUMPDEST PUSH1 0x2 PUSH1 0xC4 CALLDATALOAD LT ISZERO PUSH2 0x1FC JUMPI PUSH2 0x12B8 PUSH2 0x234A JUMP JUMPDEST PUSH1 0x44 CALLDATALOAD ISZERO PUSH2 0x1A6D JUMPI PUSH1 0x64 CALLDATALOAD ISZERO PUSH2 0x1A1C JUMPI PUSH1 0x84 CALLDATALOAD ISZERO PUSH2 0x19CC JUMPI PUSH1 0xA4 CALLDATALOAD ISZERO PUSH2 0x1987 JUMPI PUSH1 0xC4 CALLDATALOAD ISZERO PUSH2 0x18E3 JUMPI JUMPDEST PUSH1 0x2 SLOAD PUSH1 0x40 MLOAD PUSH4 0x23B872DD PUSH1 0xE0 SHL DUP2 MSTORE CALLER PUSH1 0x4 DUP3 ADD MSTORE PUSH1 0x1 PUSH1 0x1 PUSH1 0xA0 SHL SUB SWAP2 DUP3 AND PUSH1 0x24 DUP3 ADD MSTORE PUSH9 0x15AF1D78B58C40000 PUSH1 0x44 DUP3 ADD MSTORE SWAP1 PUSH1 0x20 SWAP1 DUP3 SWAP1 PUSH1 0x64 SWAP1 DUP3 SWAP1 PUSH1 0x0 SWAP1 PUSH32 0x0 AND GAS CALL DUP1 ISZERO PUSH2 0x784 JUMPI PUSH2 0x135F SWAP2 PUSH1 0x0 SWAP2 PUSH2 0x18C4 JUMPI POP PUSH2 0x22E2 JUMP JUMPDEST PUSH1 0xC4 CALLDATALOAD ISZERO PUSH2 0x17F7 JUMPI JUMPDEST PUSH1 0x7 SLOAD SWAP1 PUSH2 0x1378 PUSH1 0xA4 CALLDATALOAD TIMESTAMP PUSH2 0x232E JUMP JUMPDEST SWAP1 PUSH1 0x40 MLOAD SWAP4 DUP5 PUSH2 0x200 DUP2 ADD LT PUSH1 0x1 PUSH1 0x1 PUSH1 0x40 SHL SUB PUSH2 0x200 DUP8 ADD GT OR PUSH2 0x66D JUMPI PUSH2 0x200 DUP6 ADD PUSH1 0x40 MSTORE DUP4 DUP6 MSTORE CALLER PUSH1 0x20 DUP7 ADD MSTORE PUSH1 0x40 DUP6 ADD MSTORE PUSH1 0x60 DUP5 ADD MSTORE PUSH1 0x44 CALLDATALOAD PUSH1 0x80 DUP5 ADD MSTORE PUSH1 0x64 CALLDATALOAD PUSH1 0xA0 DUP5 ADD MSTORE PUSH1 0x84 CALLDATALOAD PUSH1 0xC0 DUP5 ADD MSTORE PUSH1 0x0 PUSH1 0xE0 DUP5 ADD MSTORE PUSH2 0x100 DUP4 ADD MSTORE PUSH1 0x1 PUSH2 0x120 DUP4 ADD MSTORE PUSH1 0x0 PUSH2 0x140 DUP4 ADD MSTORE PUSH1 0x0 PUSH2 0x160 DUP4 ADD MSTORE PUSH1 0xC4 CALLDATALOAD PUSH2 0x180 DUP4 ADD MSTORE PUSH1 0x0 PUSH2 0x1A0 DUP4 ADD MSTORE PUSH1 0x0 PUSH2 0x1C0 DUP4 ADD MSTORE PUSH1 0x0 PUSH2 0x1E0 DUP4 ADD MSTORE PUSH1 0x0 MSTORE PUSH1 0x3 PUSH1 0x20 MSTORE PUSH1 0x40 PUSH1 0x0 KECCAK256 SWAP1 DUP1 MLOAD DUP3 SSTORE PUSH1 0x1 DUP3 ADD PUSH1 0x1 DUP1 PUSH1 0xA0 SHL SUB PUSH1 0x20 DUP4 ADD MLOAD AND PUSH1 0x1 PUSH1 0x1 PUSH1 0x60 SHL SUB PUSH1 0xA0 SHL DUP3 SLOAD AND OR SWAP1 SSTORE PUSH1 0x40 DUP2 ADD MLOAD SWAP2 DUP3 MLOAD PUSH1 0x1 PUSH1 0x1 PUSH1 0x40 SHL SUB DUP2 GT PUSH2 0x66D JUMPI PUSH2 0x1467 PUSH1 0x2 DUP4 ADD SLOAD PUSH2 0x2113 JUMP JUMPDEST PUSH1 0x1F DUP2 GT PUSH2 0x17B0 JUMPI JUMPDEST POP PUSH1 0x20 PUSH1 0x1F DUP3 GT PUSH1 0x1 EQ PUSH2 0x1742 JUMPI DUP2 SWAP3 SWAP4 SWAP5 PUSH1 0x0 SWAP3 PUSH2 0x1737 JUMPI JUMPDEST POP POP DUP2 PUSH1 0x1 SHL SWAP2 PUSH1 0x0 NOT SWAP1 PUSH1 0x3 SHL SHR NOT AND OR PUSH1 0x2 DUP3 ADD SSTORE JUMPDEST PUSH1 0x60 DUP3 ADD MLOAD DUP1 MLOAD SWAP1 PUSH1 0x1 PUSH1 0x1 PUSH1 0x40 SHL SUB DUP3 GT PUSH2 0x66D JUMPI PUSH2 0x14C5 PUSH1 0x3 DUP5 ADD SLOAD PUSH2 0x2113 JUMP JUMPDEST PUSH1 0x1F DUP2 GT PUSH2 0x16F0 JUMPI JUMPDEST POP PUSH1 0x20 SWAP1 PUSH1 0x1F DUP4 GT PUSH1 0x1 EQ PUSH2 0x167D JUMPI PUSH1 0x9 SWAP4 SWAP3 SWAP2 PUSH1 0x0 SWAP2 DUP4 PUSH2 0x1672 JUMPI JUMPDEST POP POP DUP2 PUSH1 0x1 SHL SWAP2 PUSH1 0x0 NOT SWAP1 PUSH1 0x3 SHL SHR NOT AND OR PUSH1 0x3 DUP3 ADD SSTORE JUMPDEST PUSH1 0x80 DUP4 ADD MLOAD PUSH1 0x4 DUP3 ADD SSTORE PUSH1 0xA0 DUP4 ADD MLOAD PUSH1 0x5 DUP3 ADD SSTORE PUSH1 0xC0 DUP4 ADD MLOAD PUSH1 0x6 DUP3 ADD SSTORE PUSH1 0xE0 DUP4 ADD MLOAD PUSH1 0x7 DUP3 ADD SSTORE PUSH2 0x100 DUP4 ADD MLOAD PUSH1 0x8 DUP3 ADD SSTORE ADD SWAP1 PUSH2 0x1555 PUSH2 0x120 DUP3 ADD MLOAD ISZERO ISZERO DUP4 SWAP1 PUSH1 0xFF DUP1 NOT DUP4 SLOAD AND SWAP2 ISZERO ISZERO AND OR SWAP1 SSTORE JUMP JUMPDEST PUSH2 0x140 DUP2 ADD MLOAD DUP3 SLOAD PUSH2 0xFF00 NOT AND SWAP1 ISZERO ISZERO PUSH1 0x8 SHL PUSH2 0xFF00 AND OR DUP3 SSTORE PUSH2 0x160 DUP2 ADD MLOAD DUP3 SLOAD PUSH3 0x10000 PUSH1 0x1 PUSH1 0xB0 SHL SUB NOT AND PUSH1 0x10 SWAP2 SWAP1 SWAP2 SHL PUSH3 0x10000 PUSH1 0x1 PUSH1 0xB0 SHL SUB AND OR DUP3 SSTORE PUSH2 0x180 DUP2 ADD MLOAD SWAP1 PUSH1 0x2 DUP3 LT ISZERO PUSH2 0x165C JUMPI DUP3 SLOAD PUSH2 0x1A0 DUP3 ADD MLOAD PUSH2 0x1C0 DUP4 ADD MLOAD PUSH2 0x1E0 SWAP1 SWAP4 ADD MLOAD SWAP3 ISZERO ISZERO PUSH1 0xC0 SHL PUSH1 0xFF PUSH1 0xC0 SHL AND SWAP1 ISZERO ISZERO PUSH1 0xB8 SHL PUSH1 0xFF PUSH1 0xB8 SHL AND PUSH1 0xB0 SWAP5 SWAP1 SWAP5 SHL PUSH1 0xFF PUSH1 0xB0 SHL AND PUSH4 0xFFFFFFFF PUSH1 0xB0 SHL NOT SWAP1 SWAP3 AND SWAP2 SWAP1 SWAP2 OR SWAP3 SWAP1 SWAP3 OR SWAP2 SWAP1 SWAP2 OR SWAP1 ISZERO ISZERO PUSH1 0xC8 SHL PUSH1 0xFF PUSH1 0xC8 SHL AND OR SWAP1 SSTORE PUSH1 0x7 SLOAD PUSH1 0x40 MLOAD PUSH1 0x44 CALLDATALOAD DUP2 MSTORE PUSH2 0x1652 SWAP2 SWAP1 PUSH2 0x1626 PUSH1 0x20 DUP3 ADD PUSH1 0xC4 CALLDATALOAD PUSH2 0x2233 JUMP JUMPDEST DUP2 PUSH32 0xC890C80DC6C21B947623FF0DE3CBAF1A694C5D9F0AA6334EAECAE1FB59FE9609 PUSH1 0x40 CALLER SWAP4 LOG3 PUSH2 0x233B JUMP JUMPDEST PUSH1 0x7 SSTORE PUSH1 0x1 PUSH1 0x0 SSTORE STOP JUMPDEST PUSH4 0x4E487B71 PUSH1 0xE0 SHL PUSH1 0x0 MSTORE PUSH1 0x21 PUSH1 0x4 MSTORE PUSH1 0x24 PUSH1 0x0 REVERT JUMPDEST ADD MLOAD SWAP1 POP DUP6 DUP1 PUSH2 0x14EB JUMP JUMPDEST SWAP1 PUSH1 0x3 DUP5 ADD PUSH1 0x0 MSTORE PUSH1 0x20 PUSH1 0x0 KECCAK256 SWAP2 PUSH1 0x0 JUMPDEST PUSH1 0x1F NOT DUP6 AND DUP2 LT PUSH2 0x16D8 JUMPI POP SWAP2 DUP4 SWAP2 PUSH1 0x1 SWAP4 PUSH1 0x9 SWAP7 SWAP6 PUSH1 0x1F NOT DUP2 AND LT PUSH2 0x16BF JUMPI JUMPDEST POP POP POP DUP2 SHL ADD PUSH1 0x3 DUP3 ADD SSTORE PUSH2 0x1503 JUMP JUMPDEST ADD MLOAD PUSH1 0x0 NOT PUSH1 0xF8 DUP5 PUSH1 0x3 SHL AND SHR NOT AND SWAP1 SSTORE DUP6 DUP1 DUP1 PUSH2 0x16AF JUMP JUMPDEST SWAP2 SWAP3 PUSH1 0x20 PUSH1 0x1 DUP2 SWAP3 DUP7 DUP6 ADD MLOAD DUP2 SSTORE ADD SWAP5 ADD SWAP3 ADD PUSH2 0x168E JUMP JUMPDEST PUSH1 0x3 DUP5 ADD PUSH1 0x0 MSTORE PUSH1 0x20 PUSH1 0x0 KECCAK256 PUSH1 0x1F DUP5 ADD PUSH1 0x5 SHR DUP2 ADD PUSH1 0x20 DUP6 LT PUSH2 0x1730 JUMPI JUMPDEST PUSH1 0x1F DUP4 ADD PUSH1 0x5 SHR DUP3 ADD DUP2 LT PUSH2 0x1724 JUMPI POP POP PUSH2 0x14CE JUMP JUMPDEST PUSH1 0x0 DUP2 SSTORE PUSH1 0x1 ADD PUSH2 0x170E JUMP JUMPDEST POP DUP1 PUSH2 0x170E JUMP JUMPDEST ADD MLOAD SWAP1 POP DUP5 DUP1 PUSH2 0x148A JUMP JUMPDEST PUSH1 0x2 DUP4 ADD PUSH1 0x0 MSTORE PUSH1 0x20 PUSH1 0x0 KECCAK256 SWAP1 PUSH1 0x0 JUMPDEST PUSH1 0x1F NOT DUP5 AND DUP2 LT PUSH2 0x1798 JUMPI POP PUSH1 0x1 SWAP4 SWAP5 SWAP6 DUP4 PUSH1 0x1F NOT DUP2 AND LT PUSH2 0x177F JUMPI JUMPDEST POP POP POP DUP2 SHL ADD PUSH1 0x2 DUP3 ADD SSTORE PUSH2 0x14A2 JUMP JUMPDEST ADD MLOAD PUSH1 0x0 NOT PUSH1 0xF8 DUP5 PUSH1 0x3 SHL AND SHR NOT AND SWAP1 SSTORE DUP5 DUP1 DUP1 PUSH2 0x176F JUMP JUMPDEST SWAP1 SWAP2 PUSH1 0x20 PUSH1 0x1 DUP2 SWAP3 DUP6 DUP11 ADD MLOAD DUP2 SSTORE ADD SWAP4 ADD SWAP2 ADD PUSH2 0x1752 JUMP JUMPDEST PUSH1 0x2 DUP4 ADD PUSH1 0x0 MSTORE PUSH1 0x20 PUSH1 0x0 KECCAK256 PUSH1 0x1F DUP4 ADD PUSH1 0x5 SHR DUP2 ADD PUSH1 0x20 DUP5 LT PUSH2 0x17F0 JUMPI JUMPDEST PUSH1 0x1F DUP4 ADD PUSH1 0x5 SHR DUP3 ADD DUP2 LT PUSH2 0x17E4 JUMPI POP POP PUSH2 0x1470 JUMP JUMPDEST PUSH1 0x0 DUP2 SSTORE PUSH1 0x1 ADD PUSH2 0x17CE JUMP JUMPDEST POP DUP1 PUSH2 0x17CE JUMP JUMPDEST PUSH1 0x40 MLOAD PUSH4 0x23B872DD PUSH1 0xE0 SHL DUP2 MSTORE CALLER PUSH1 0x4 DUP3 ADD MSTORE ADDRESS PUSH1 0x24 DUP3 ADD MSTORE PUSH1 0x44 DUP1 CALLDATALOAD SWAP1 DUP3 ADD MSTORE PUSH1 0x20 DUP2 PUSH1 0x64 DUP2 PUSH1 0x0 PUSH1 0x1 PUSH1 0x1 PUSH1 0xA0 SHL SUB PUSH32 0x0 AND GAS CALL SWAP1 DUP2 ISZERO PUSH2 0x784 JUMPI PUSH1 0x0 SWAP2 PUSH2 0x18A5 JUMPI JUMPDEST POP PUSH2 0x1368 JUMPI PUSH1 0x40 MLOAD PUSH3 0x461BCD PUSH1 0xE5 SHL DUP2 MSTORE PUSH1 0x20 PUSH1 0x4 DUP3 ADD MSTORE PUSH1 0x1C PUSH1 0x24 DUP3 ADD MSTORE PUSH32 0x5072697A6520616D6F756E74207472616E73666572206661696C656400000000 PUSH1 0x44 DUP3 ADD MSTORE PUSH1 0x64 SWAP1 REVERT JUMPDEST PUSH2 0x18BE SWAP2 POP PUSH1 0x20 RETURNDATASIZE PUSH1 0x20 GT PUSH2 0x77D JUMPI PUSH2 0x76F DUP2 DUP4 PUSH2 0x209C JUMP JUMPDEST DUP4 PUSH2 0x185B JUMP JUMPDEST PUSH2 0x18DD SWAP2 POP PUSH1 0x20 RETURNDATASIZE PUSH1 0x20 GT PUSH2 0x77D JUMPI PUSH2 0x76F DUP2 DUP4 PUSH2 0x209C JUMP JUMPDEST DUP5 PUSH2 0x3A9 JUMP JUMPDEST PUSH1 0x1 DUP1 PUSH1 0xA0 SHL SUB DUP1 PUSH32 0x0 AND CALLER EQ SWAP1 DUP2 ISZERO PUSH2 0x1979 JUMPI JUMPDEST POP PUSH2 0x12E1 JUMPI PUSH1 0x40 MLOAD PUSH3 0x461BCD PUSH1 0xE5 SHL DUP2 MSTORE PUSH1 0x20 PUSH1 0x4 DUP3 ADD MSTORE PUSH1 0x2F PUSH1 0x24 DUP3 ADD MSTORE PUSH32 0x4F6E6C7920617574686F72697A65642077616C6C6574732063616E2063726561 PUSH1 0x44 DUP3 ADD MSTORE PUSH15 0x7465205553445420726166666C6573 PUSH1 0x88 SHL PUSH1 0x64 DUP3 ADD MSTORE PUSH1 0x84 SWAP1 REVERT JUMPDEST SWAP1 POP PUSH1 0x2 SLOAD AND CALLER EQ DUP4 PUSH2 0x1917 JUMP JUMPDEST PUSH1 0x40 MLOAD PUSH3 0x461BCD PUSH1 0xE5 SHL DUP2 MSTORE PUSH1 0x20 PUSH1 0x4 DUP3 ADD MSTORE PUSH1 0x1F PUSH1 0x24 DUP3 ADD MSTORE PUSH32 0x4475726174696F6E206D7573742062652067726561746572207468616E203000 PUSH1 0x44 DUP3 ADD MSTORE PUSH1 0x64 SWAP1 REVERT JUMPDEST PUSH1 0x40 MLOAD PUSH3 0x461BCD PUSH1 0xE5 SHL DUP2 MSTORE PUSH1 0x20 PUSH1 0x4 DUP3 ADD MSTORE PUSH1 0x22 PUSH1 0x24 DUP3 ADD MSTORE PUSH32 0x4D6178207469636B657473206D7573742062652067726561746572207468616E PUSH1 0x44 DUP3 ADD MSTORE PUSH2 0x203 PUSH1 0xF4 SHL PUSH1 0x64 DUP3 ADD MSTORE PUSH1 0x84 SWAP1 REVERT JUMPDEST PUSH1 0x40 MLOAD PUSH3 0x461BCD PUSH1 0xE5 SHL DUP2 MSTORE PUSH1 0x20 PUSH1 0x4 DUP3 ADD MSTORE PUSH1 0x23 PUSH1 0x24 DUP3 ADD MSTORE PUSH32 0x5469636B6574207072696365206D757374206265206772656174657220746861 PUSH1 0x44 DUP3 ADD MSTORE PUSH3 0x6E203 PUSH1 0xEC SHL PUSH1 0x64 DUP3 ADD MSTORE PUSH1 0x84 SWAP1 REVERT JUMPDEST PUSH1 0x40 MLOAD PUSH3 0x461BCD PUSH1 0xE5 SHL DUP2 MSTORE PUSH1 0x20 PUSH1 0x4 DUP3 ADD MSTORE PUSH1 0x23 PUSH1 0x24 DUP3 ADD MSTORE PUSH32 0x5072697A6520616D6F756E74206D757374206265206772656174657220746861 PUSH1 0x44 DUP3 ADD MSTORE PUSH3 0x6E203 PUSH1 0xEC SHL PUSH1 0x64 DUP3 ADD MSTORE PUSH1 0x84 SWAP1 REVERT JUMPDEST CALLVALUE PUSH2 0x1FC JUMPI PUSH1 0x0 CALLDATASIZE PUSH1 0x3 NOT ADD SLT PUSH2 0x1FC JUMPI PUSH1 0x20 PUSH1 0x8 SLOAD PUSH1 0x40 MLOAD SWAP1 DUP2 MSTORE RETURN JUMPDEST CALLVALUE PUSH2 0x1FC JUMPI PUSH1 0x40 CALLDATASIZE PUSH1 0x3 NOT ADD SLT PUSH2 0x1FC JUMPI PUSH1 0x24 PUSH1 0x4 CALLDATALOAD DUP2 CALLDATALOAD DUP1 ISZERO ISZERO DUP2 SUB PUSH2 0x1FC JUMPI DUP2 PUSH1 0x0 MSTORE PUSH1 0x20 SWAP1 PUSH1 0x3 DUP3 MSTORE PUSH1 0x40 PUSH1 0x0 KECCAK256 SWAP1 PUSH1 0x9 DUP3 ADD SWAP1 DUP2 SLOAD SWAP3 PUSH1 0xFF SWAP4 DUP5 DUP2 PUSH1 0x8 SHR AND ISZERO PUSH2 0x2023 JUMPI PUSH1 0xC8 SHR DUP5 AND PUSH2 0x1FDF JUMPI PUSH1 0x1 ADD SLOAD PUSH1 0x1 PUSH1 0x1 PUSH1 0xA0 SHL SUB SWAP4 SWAP3 SWAP2 SWAP1 CALLER SWAP1 DUP6 AND SUB PUSH2 0x1F70 JUMPI DUP2 SLOAD PUSH1 0xFF PUSH1 0xB8 SHL NOT AND SWAP1 ISZERO ISZERO PUSH1 0xB8 SHL PUSH1 0xFF PUSH1 0xB8 SHL AND OR DUP2 SSTORE JUMPDEST SLOAD DUP3 DUP3 DUP3 PUSH1 0xB8 SHR AND SWAP2 DUP3 PUSH2 0x1F62 JUMPI JUMPDEST DUP3 PUSH2 0x1F53 JUMPI JUMPDEST POP POP PUSH2 0x1B7C JUMPI STOP JUMPDEST DUP4 PUSH1 0x0 MSTORE PUSH1 0x3 DUP4 MSTORE PUSH1 0x40 PUSH1 0x0 KECCAK256 SWAP5 PUSH1 0x9 DUP7 ADD SWAP2 DUP3 SLOAD DUP2 DUP2 PUSH1 0xC8 SHR AND PUSH2 0x1F1C JUMPI PUSH1 0xFF PUSH1 0xC8 SHL NOT AND PUSH1 0x1 PUSH1 0xC8 SHL OR DUP1 DUP5 SSTORE PUSH1 0x7 DUP9 ADD SLOAD PUSH1 0x5 DUP10 ADD SLOAD PUSH2 0x1BBE SWAP2 PUSH2 0x23AD JUMP JUMPDEST SWAP2 PUSH1 0xA DUP4 MUL DUP4 DUP2 DIV PUSH1 0xA EQ DUP5 ISZERO OR ISZERO PUSH2 0x1F07 JUMPI PUSH1 0x64 SWAP1 DIV SWAP2 PUSH1 0x32 DUP4 MUL DUP4 DUP2 DIV PUSH1 0x32 EQ DUP5 ISZERO OR ISZERO PUSH2 0x1EF2 JUMPI PUSH1 0x64 PUSH2 0x1C00 SWAP2 DIV SWAP4 PUSH2 0x1BFA DUP6 DUP3 PUSH2 0x23C0 JUMP JUMPDEST SWAP6 PUSH2 0x23C0 JUMP JUMPDEST SWAP2 DUP2 PUSH1 0xB0 SHR AND PUSH1 0x2 DUP2 LT ISZERO PUSH2 0x1EDD JUMPI DUP9 SWAP2 DUP9 SWAP2 PUSH2 0x1E69 JUMPI POP SWAP2 PUSH2 0x1C31 PUSH2 0x1C5F SWAP4 DUP9 SLOAD PUSH1 0x10 SHR AND SWAP2 PUSH1 0x4 DUP14 ADD SLOAD PUSH2 0x232E JUMP JUMPDEST PUSH1 0x40 MLOAD PUSH4 0xA9059CBB PUSH1 0xE0 SHL DUP2 MSTORE PUSH1 0x1 PUSH1 0x1 PUSH1 0xA0 SHL SUB SWAP1 SWAP3 AND PUSH1 0x4 DUP4 ADD MSTORE PUSH1 0x24 DUP3 ADD MSTORE SWAP2 DUP3 SWAP1 DUP2 SWAP1 PUSH1 0x44 DUP3 ADD SWAP1 JUMP JUMPDEST SUB DUP2 PUSH1 0x0 DUP11 PUSH32 0x0 AND GAS CALL DUP1 ISZERO PUSH2 0x784 JUMPI PUSH2 0x1CA0 SWAP2 PUSH1 0x0 SWAP2 PUSH2 0x1E4C JUMPI JUMPDEST POP PUSH2 0x23CD JUMP JUMPDEST PUSH1 0x2 SLOAD PUSH1 0x40 MLOAD PUSH4 0xA9059CBB PUSH1 0xE0 SHL DUP1 DUP3 MSTORE SWAP2 DUP8 AND PUSH1 0x1 PUSH1 0x1 PUSH1 0xA0 SHL SUB AND PUSH1 0x4 DUP3 ADD MSTORE PUSH1 0x24 DUP2 ADD SWAP3 SWAP1 SWAP3 MSTORE PUSH32 0x0 DUP7 AND SWAP2 DUP8 DUP2 PUSH1 0x44 DUP2 PUSH1 0x0 DUP8 GAS CALL SWAP1 DUP2 ISZERO PUSH2 0x784 JUMPI PUSH1 0x0 SWAP2 PUSH2 0x1E2F JUMPI JUMPDEST POP ISZERO PUSH2 0x1DEB JUMPI PUSH1 0x1 DUP10 ADD SLOAD PUSH1 0x40 MLOAD SWAP2 DUP3 MSTORE DUP7 AND PUSH1 0x1 PUSH1 0x1 PUSH1 0xA0 SHL SUB AND PUSH1 0x4 DUP3 ADD MSTORE PUSH1 0x24 DUP2 ADD SWAP3 SWAP1 SWAP3 MSTORE DUP6 SWAP1 DUP3 SWAP1 PUSH1 0x44 SWAP1 DUP3 SWAP1 PUSH1 0x0 SWAP1 GAS CALL SWAP1 DUP2 ISZERO PUSH2 0x784 JUMPI PUSH1 0x0 SWAP2 PUSH2 0x1DCE JUMPI JUMPDEST POP ISZERO PUSH2 0x1D8B JUMPI POP PUSH32 0x5621778AB13FBF7130D91AE5035A140B79A6CFD120059C2EA0FEC2A5CE6731A6 SWAP3 SWAP2 PUSH1 0x4 SWAP2 SLOAD PUSH1 0x10 SHR AND SWAP5 ADD SLOAD PUSH1 0x40 MLOAD SWAP1 DUP2 MSTORE LOG3 STOP JUMPDEST DUP4 PUSH1 0x19 PUSH1 0x64 SWAP3 PUSH1 0x40 MLOAD SWAP3 PUSH3 0x461BCD PUSH1 0xE5 SHL DUP5 MSTORE PUSH1 0x4 DUP5 ADD MSTORE DUP3 ADD MSTORE PUSH32 0x43726561746F7220636F6D6D697373696F6E206661696C656400000000000000 PUSH1 0x44 DUP3 ADD MSTORE REVERT JUMPDEST PUSH2 0x1DE5 SWAP2 POP DUP6 RETURNDATASIZE DUP8 GT PUSH2 0x77D JUMPI PUSH2 0x76F DUP2 DUP4 PUSH2 0x209C JUMP JUMPDEST DUP8 PUSH2 0x1D4D JUMP JUMPDEST PUSH1 0x40 MLOAD PUSH3 0x461BCD PUSH1 0xE5 SHL DUP2 MSTORE PUSH1 0x4 DUP2 ADD DUP9 SWAP1 MSTORE PUSH1 0x1A DUP2 DUP7 ADD MSTORE PUSH32 0x506C6174666F726D20636F6D6D697373696F6E206661696C6564000000000000 PUSH1 0x44 DUP3 ADD MSTORE PUSH1 0x64 SWAP1 REVERT JUMPDEST PUSH2 0x1E46 SWAP2 POP DUP9 RETURNDATASIZE DUP11 GT PUSH2 0x77D JUMPI PUSH2 0x76F DUP2 DUP4 PUSH2 0x209C JUMP JUMPDEST DUP11 PUSH2 0x1D07 JUMP JUMPDEST PUSH2 0x1E63 SWAP2 POP DUP9 RETURNDATASIZE DUP11 GT PUSH2 0x77D JUMPI PUSH2 0x76F DUP2 DUP4 PUSH2 0x209C JUMP JUMPDEST DUP11 PUSH2 0x1C9A JUMP JUMPDEST PUSH1 0x40 MLOAD PUSH4 0xA9059CBB PUSH1 0xE0 SHL DUP2 MSTORE PUSH1 0x10 SWAP2 SWAP1 SWAP2 SHR SWAP2 SWAP1 SWAP2 AND PUSH1 0x1 PUSH1 0x1 PUSH1 0xA0 SHL SUB AND PUSH1 0x4 DUP3 ADD MSTORE PUSH1 0x24 DUP2 ADD SWAP3 SWAP1 SWAP3 MSTORE DUP2 PUSH1 0x44 DUP2 PUSH1 0x0 PUSH32 0x0 DUP12 AND GAS CALL DUP1 ISZERO PUSH2 0x784 JUMPI PUSH2 0x1ED8 SWAP2 PUSH1 0x0 SWAP2 PUSH2 0x1E4C JUMPI POP PUSH2 0x23CD JUMP JUMPDEST PUSH2 0x1CA0 JUMP JUMPDEST DUP6 PUSH4 0x4E487B71 PUSH1 0xE0 SHL PUSH1 0x0 MSTORE PUSH1 0x21 PUSH1 0x4 MSTORE PUSH1 0x0 REVERT JUMPDEST DUP6 PUSH4 0x4E487B71 PUSH1 0xE0 SHL PUSH1 0x0 MSTORE PUSH1 0x11 PUSH1 0x4 MSTORE PUSH1 0x0 REVERT JUMPDEST DUP5 PUSH4 0x4E487B71 PUSH1 0xE0 SHL PUSH1 0x0 MSTORE PUSH1 0x11 PUSH1 0x4 MSTORE PUSH1 0x0 REVERT JUMPDEST PUSH1 0x40 MLOAD PUSH3 0x461BCD PUSH1 0xE5 SHL DUP2 MSTORE PUSH1 0x4 DUP2 ADD DUP8 SWAP1 MSTORE PUSH1 0x10 DUP2 DUP6 ADD MSTORE PUSH16 0x105B1C9958591E481C995B19585CD959 PUSH1 0x82 SHL PUSH1 0x44 DUP3 ADD MSTORE PUSH1 0x64 SWAP1 REVERT JUMPDEST PUSH1 0x10 SHR AND ISZERO ISZERO SWAP1 POP DUP3 DUP8 PUSH2 0x1B74 JUMP JUMPDEST SWAP2 POP DUP3 DUP3 PUSH1 0xC0 SHR AND SWAP2 PUSH2 0x1B6E JUMP JUMPDEST DUP4 PUSH1 0x1 SLOAD AND CALLER EQ PUSH1 0x0 EQ PUSH2 0x1F9B JUMPI DUP2 SLOAD PUSH1 0xFF PUSH1 0xC0 SHL NOT AND SWAP1 ISZERO ISZERO PUSH1 0xC0 SHL PUSH1 0xFF PUSH1 0xC0 SHL AND OR DUP2 SSTORE PUSH2 0x1B5F JUMP JUMPDEST PUSH1 0x40 MLOAD PUSH3 0x461BCD PUSH1 0xE5 SHL DUP2 MSTORE PUSH1 0x4 DUP2 ADD DUP7 SWAP1 MSTORE PUSH1 0x19 DUP2 DUP10 ADD MSTORE PUSH32 0x4E6F7420617574686F72697A656420746F20617070726F766500000000000000 PUSH1 0x44 DUP3 ADD MSTORE PUSH1 0x64 SWAP1 REVERT JUMPDEST PUSH1 0x40 MLOAD PUSH3 0x461BCD PUSH1 0xE5 SHL DUP2 MSTORE PUSH1 0x4 DUP2 ADD DUP7 SWAP1 MSTORE PUSH1 0x17 DUP2 DUP10 ADD MSTORE PUSH32 0x5061796F757420616C72656164792072656C6561736564000000000000000000 PUSH1 0x44 DUP3 ADD MSTORE PUSH1 0x64 SWAP1 REVERT JUMPDEST PUSH1 0x40 MLOAD PUSH3 0x461BCD PUSH1 0xE5 SHL DUP2 MSTORE PUSH1 0x4 DUP2 ADD DUP8 SWAP1 MSTORE PUSH1 0x14 DUP2 DUP11 ADD MSTORE PUSH20 0x149859999B19481B9BDD0818DBDB5C1B195D1959 PUSH1 0x62 SHL PUSH1 0x44 DUP3 ADD MSTORE PUSH1 0x64 SWAP1 REVERT JUMPDEST CALLVALUE PUSH2 0x1FC JUMPI PUSH1 0x0 CALLDATASIZE PUSH1 0x3 NOT ADD SLT PUSH2 0x1FC JUMPI DUP1 PUSH1 0x2 PUSH1 0x20 SWAP3 MSTORE RETURN JUMPDEST CALLVALUE PUSH2 0x1FC JUMPI PUSH1 0x0 CALLDATASIZE PUSH1 0x3 NOT ADD SLT PUSH2 0x1FC JUMPI PUSH1 0x20 PUSH1 0x40 MLOAD PUSH9 0x15AF1D78B58C40000 DUP2 MSTORE RETURN JUMPDEST SWAP1 PUSH1 0x1F DUP1 NOT SWAP2 ADD AND DUP2 ADD SWAP1 DUP2 LT PUSH1 0x1 PUSH1 0x1 PUSH1 0x40 SHL SUB DUP3 GT OR PUSH2 0x66D JUMPI PUSH1 0x40 MSTORE JUMP JUMPDEST DUP2 PUSH1 0x1F DUP3 ADD SLT ISZERO PUSH2 0x1FC JUMPI DUP1 CALLDATALOAD SWAP1 PUSH1 0x1 PUSH1 0x1 PUSH1 0x40 SHL SUB DUP3 GT PUSH2 0x66D JUMPI PUSH1 0x40 MLOAD SWAP3 PUSH2 0x20F1 PUSH1 0x1F DUP5 ADD PUSH1 0x1F NOT AND PUSH1 0x20 ADD DUP6 PUSH2 0x209C JUMP JUMPDEST DUP3 DUP5 MSTORE PUSH1 0x20 DUP4 DUP4 ADD ADD GT PUSH2 0x1FC JUMPI DUP2 PUSH1 0x0 SWAP3 PUSH1 0x20 DUP1 SWAP4 ADD DUP4 DUP7 ADD CALLDATACOPY DUP4 ADD ADD MSTORE SWAP1 JUMP JUMPDEST SWAP1 PUSH1 0x1 DUP3 DUP2 SHR SWAP3 AND DUP1 ISZERO PUSH2 0x2143 JUMPI JUMPDEST PUSH1 0x20 DUP4 LT EQ PUSH2 0x212D JUMPI JUMP JUMPDEST PUSH4 0x4E487B71 PUSH1 0xE0 SHL PUSH1 0x0 MSTORE PUSH1 0x22 PUSH1 0x4 MSTORE PUSH1 0x24 PUSH1 0x0 REVERT JUMPDEST SWAP2 PUSH1 0x7F AND SWAP2 PUSH2 0x2122 JUMP JUMPDEST SWAP1 PUSH1 0x40 MLOAD SWAP2 DUP3 PUSH1 0x0 DUP3 SLOAD SWAP3 PUSH2 0x2161 DUP5 PUSH2 0x2113 JUMP JUMPDEST SWAP1 DUP2 DUP5 MSTORE PUSH1 0x1 SWAP5 DUP6 DUP2 AND SWAP1 DUP2 PUSH1 0x0 EQ PUSH2 0x21D0 JUMPI POP PUSH1 0x1 EQ PUSH2 0x218D JUMPI JUMPDEST POP POP PUSH2 0x218B SWAP3 POP SUB DUP4 PUSH2 0x209C JUMP JUMPDEST JUMP JUMPDEST SWAP1 SWAP4 SWAP2 POP PUSH1 0x0 MSTORE PUSH1 0x20 SWAP1 DUP2 PUSH1 0x0 KECCAK256 SWAP4 PUSH1 0x0 SWAP2 JUMPDEST DUP2 DUP4 LT PUSH2 0x21B8 JUMPI POP POP PUSH2 0x218B SWAP4 POP DUP3 ADD ADD CODESIZE DUP1 PUSH2 0x217D JUMP JUMPDEST DUP6 SLOAD DUP9 DUP5 ADD DUP6 ADD MSTORE SWAP5 DUP6 ADD SWAP5 DUP8 SWAP5 POP SWAP2 DUP4 ADD SWAP2 PUSH2 0x21A0 JUMP JUMPDEST SWAP2 POP POP PUSH2 0x218B SWAP5 POP PUSH1 0x20 SWAP3 POP PUSH1 0xFF NOT AND DUP3 DUP5 ADD MSTORE ISZERO ISZERO PUSH1 0x5 SHL DUP3 ADD ADD CODESIZE DUP1 PUSH2 0x217D JUMP JUMPDEST SWAP2 SWAP1 DUP3 MLOAD SWAP3 DUP4 DUP3 MSTORE PUSH1 0x0 JUMPDEST DUP5 DUP2 LT PUSH2 0x221F JUMPI POP POP DUP3 PUSH1 0x0 PUSH1 0x20 DUP1 SWAP5 SWAP6 DUP5 ADD ADD MSTORE PUSH1 0x1F DUP1 NOT SWAP2 ADD AND ADD ADD SWAP1 JUMP JUMPDEST PUSH1 0x20 DUP2 DUP4 ADD DUP2 ADD MLOAD DUP5 DUP4 ADD DUP3 ADD MSTORE ADD PUSH2 0x21FE JUMP JUMPDEST SWAP1 PUSH1 0x2 DUP3 LT ISZERO PUSH2 0x165C JUMPI MSTORE JUMP JUMPDEST PUSH1 0x40 SWAP1 PUSH1 0x3 NOT ADD SLT PUSH2 0x1FC JUMPI PUSH1 0x4 CALLDATALOAD SWAP1 PUSH1 0x24 CALLDATALOAD SWAP1 JUMP JUMPDEST CALLVALUE PUSH2 0x1FC JUMPI PUSH1 0x0 CALLDATASIZE PUSH1 0x3 NOT ADD SLT PUSH2 0x1FC JUMPI PUSH1 0x20 PUSH1 0x40 MLOAD PUSH1 0x32 DUP2 MSTORE RETURN JUMPDEST PUSH1 0x4 CALLDATALOAD SWAP1 PUSH1 0x1 PUSH1 0x1 PUSH1 0xA0 SHL SUB DUP3 AND DUP3 SUB PUSH2 0x1FC JUMPI JUMP JUMPDEST PUSH1 0x24 CALLDATALOAD SWAP1 PUSH1 0x1 PUSH1 0x1 PUSH1 0xA0 SHL SUB DUP3 AND DUP3 SUB PUSH2 0x1FC JUMPI JUMP JUMPDEST PUSH1 0x1 SLOAD PUSH1 0x1 PUSH1 0x1 PUSH1 0xA0 SHL SUB AND CALLER SUB PUSH2 0x22B2 JUMPI JUMP JUMPDEST PUSH1 0x40 MLOAD PUSH4 0x118CDAA7 PUSH1 0xE0 SHL DUP2 MSTORE CALLER PUSH1 0x4 DUP3 ADD MSTORE PUSH1 0x24 SWAP1 REVERT JUMPDEST SWAP1 DUP2 PUSH1 0x20 SWAP2 SUB SLT PUSH2 0x1FC JUMPI MLOAD DUP1 ISZERO ISZERO DUP2 SUB PUSH2 0x1FC JUMPI SWAP1 JUMP JUMPDEST ISZERO PUSH2 0x22E9 JUMPI JUMP JUMPDEST PUSH1 0x40 MLOAD PUSH3 0x461BCD PUSH1 0xE5 SHL DUP2 MSTORE PUSH1 0x20 PUSH1 0x4 DUP3 ADD MSTORE PUSH1 0x1C PUSH1 0x24 DUP3 ADD MSTORE PUSH32 0x4372656174696F6E20666565207472616E73666572206661696C656400000000 PUSH1 0x44 DUP3 ADD MSTORE PUSH1 0x64 SWAP1 REVERT JUMPDEST SWAP2 SWAP1 DUP3 ADD DUP1 SWAP3 GT PUSH2 0x100D JUMPI JUMP JUMPDEST PUSH1 0x0 NOT DUP2 EQ PUSH2 0x100D JUMPI PUSH1 0x1 ADD SWAP1 JUMP JUMPDEST PUSH1 0x2 PUSH1 0x0 SLOAD EQ PUSH2 0x235B JUMPI PUSH1 0x2 PUSH1 0x0 SSTORE JUMP JUMPDEST PUSH1 0x40 MLOAD PUSH4 0x3EE5AEB5 PUSH1 0xE0 SHL DUP2 MSTORE PUSH1 0x4 SWAP1 REVERT JUMPDEST ISZERO PUSH2 0x2374 JUMPI JUMP JUMPDEST PUSH1 0x40 MLOAD PUSH3 0x461BCD PUSH1 0xE5 SHL DUP2 MSTORE PUSH1 0x20 PUSH1 0x4 DUP3 ADD MSTORE PUSH1 0x11 PUSH1 0x24 DUP3 ADD MSTORE PUSH17 0x526166666C65206E6F7420616374697665 PUSH1 0x78 SHL PUSH1 0x44 DUP3 ADD MSTORE PUSH1 0x64 SWAP1 REVERT JUMPDEST DUP2 DUP2 MUL SWAP3 SWAP2 DUP2 ISZERO SWAP2 DUP5 DIV EQ OR ISZERO PUSH2 0x100D JUMPI JUMP JUMPDEST SWAP2 SWAP1 DUP3 SUB SWAP2 DUP3 GT PUSH2 0x100D JUMPI JUMP JUMPDEST ISZERO PUSH2 0x23D4 JUMPI JUMP JUMPDEST PUSH1 0x40 MLOAD PUSH3 0x461BCD PUSH1 0xE5 SHL DUP2 MSTORE PUSH1 0x20 PUSH1 0x4 DUP3 ADD MSTORE PUSH1 0x15 PUSH1 0x24 DUP3 ADD MSTORE PUSH21 0x141C9A5E99481D1C985B9CD9995C8819985A5B1959 PUSH1 0x5A SHL PUSH1 0x44 DUP3 ADD MSTORE PUSH1 0x64 SWAP1 REVERT INVALID LOG2 PUSH5 0x6970667358 0x22 SLT KECCAK256 PUSH10 0xE5D2083B4CC6A7334B24 0xD4 0xDF SELFBALANCE DUP11 GT 0xE6 0x4C PUSH17 0xD4340B0258D562A63F9C9489AB64736F6C PUSH4 0x43000814 STOP CALLER "},"methodIdentifiers":{"CREATOR_SHARE()":"cc0c3039","DONATION_COMMISSION_RATE()":"04d38dd4","DONATION_CREATION_FEE()":"e444a278","PLATFORM_SHARE()":"66fab57c","RAFFLE_COMMISSION_RATE()":"6aa42e4e","RAFFLE_CREATION_FEE()":"29c6f60c","USDT()":"c54e44eb","approveRaffleResult(uint256,bool)":"31ae8abc","buyTickets(uint256,uint256)":"8627df46","commissionWallet()":"97c0262a","createDonation(string,string,uint256,uint256,bool)":"f29c940b","createRaffle(string,string,uint256,uint256,uint256,uint256,uint8)":"52fba8ef","deployWallet()":"53535db9","donationContributions(uint256,address)":"a9f8623a","donationCounter()":"38d187dd","donations(uint256)":"f8626af8","emergencyWithdraw(address,uint256)":"95ccea67","endRaffle(uint256)":"9def429d","makeDonation(uint256,uint256)":"623560af","owner()":"8da5cb5b","raffleCounter()":"c2f306a5","raffleTickets(uint256,address)":"ee2c18ba","raffles(uint256)":"5d4bc0ce","renounceOwnership()":"715018a6","transferOwnership(address)":"f2fde38b","updateCommissionWallet(address)":"f33b5541"}}}}}