{
  "_format": "hh-sol-artifact-1",
  "contractName": "DuxxanPlatformSimple",
  "sourceName": "contracts/DuxxanPlatform.sol",
  "abi": [
    {
      "inputs": [
        {
          "internalType": "address",
          "name": "_usdtToken",
          "type": "address"
        },
        {
          "internalType": "address",
          "name": "_commissionWallet",
          "type": "address"
        }
      ],
      "stateMutability": "nonpayable",
      "type": "constructor"
    },
    {
      "inputs": [
        {
          "internalType": "address",
          "name": "owner",
          "type": "address"
        }
      ],
      "name": "OwnableInvalidOwner",
      "type": "error"
    },
    {
      "inputs": [
        {
          "internalType": "address",
          "name": "account",
          "type": "address"
        }
      ],
      "name": "OwnableUnauthorizedAccount",
      "type": "error"
    },
    {
      "inputs": [],
      "name": "ReentrancyGuardReentrantCall",
      "type": "error"
    },
    {
      "anonymous": false,
      "inputs": [
        {
          "indexed": true,
          "internalType": "uint256",
          "name": "donationId",
          "type": "uint256"
        },
        {
          "indexed": true,
          "internalType": "address",
          "name": "creator",
          "type": "address"
        },
        {
          "indexed": false,
          "internalType": "uint256",
          "name": "goalAmount",
          "type": "uint256"
        }
      ],
      "name": "DonationCreated",
      "type": "event"
    },
    {
      "anonymous": false,
      "inputs": [
        {
          "indexed": true,
          "internalType": "uint256",
          "name": "donationId",
          "type": "uint256"
        },
        {
          "indexed": true,
          "internalType": "address",
          "name": "donor",
          "type": "address"
        },
        {
          "indexed": false,
          "internalType": "uint256",
          "name": "amount",
          "type": "uint256"
        }
      ],
      "name": "DonationMade",
      "type": "event"
    },
    {
      "anonymous": false,
      "inputs": [
        {
          "indexed": true,
          "internalType": "address",
          "name": "previousOwner",
          "type": "address"
        },
        {
          "indexed": true,
          "internalType": "address",
          "name": "newOwner",
          "type": "address"
        }
      ],
      "name": "OwnershipTransferred",
      "type": "event"
    },
    {
      "anonymous": false,
      "inputs": [
        {
          "indexed": true,
          "internalType": "uint256",
          "name": "raffleId",
          "type": "uint256"
        },
        {
          "indexed": true,
          "internalType": "address",
          "name": "winner",
          "type": "address"
        },
        {
          "indexed": false,
          "internalType": "uint256",
          "name": "amount",
          "type": "uint256"
        }
      ],
      "name": "PayoutReleased",
      "type": "event"
    },
    {
      "anonymous": false,
      "inputs": [
        {
          "indexed": true,
          "internalType": "uint256",
          "name": "raffleId",
          "type": "uint256"
        },
        {
          "indexed": true,
          "internalType": "address",
          "name": "creator",
          "type": "address"
        },
        {
          "indexed": false,
          "internalType": "uint256",
          "name": "prizeAmount",
          "type": "uint256"
        },
        {
          "indexed": false,
          "internalType": "enum DuxxanPlatformSimple.PrizeType",
          "name": "prizeType",
          "type": "uint8"
        }
      ],
      "name": "RaffleCreated",
      "type": "event"
    },
    {
      "anonymous": false,
      "inputs": [
        {
          "indexed": true,
          "internalType": "uint256",
          "name": "raffleId",
          "type": "uint256"
        },
        {
          "indexed": true,
          "internalType": "address",
          "name": "winner",
          "type": "address"
        },
        {
          "indexed": false,
          "internalType": "uint256",
          "name": "prizeAmount",
          "type": "uint256"
        }
      ],
      "name": "RaffleEnded",
      "type": "event"
    },
    {
      "anonymous": false,
      "inputs": [
        {
          "indexed": true,
          "internalType": "uint256",
          "name": "raffleId",
          "type": "uint256"
        },
        {
          "indexed": true,
          "internalType": "address",
          "name": "buyer",
          "type": "address"
        },
        {
          "indexed": false,
          "internalType": "uint256",
          "name": "quantity",
          "type": "uint256"
        }
      ],
      "name": "TicketPurchased",
      "type": "event"
    },
    {
      "inputs": [],
      "name": "CREATOR_SHARE",
      "outputs": [
        {
          "internalType": "uint256",
          "name": "",
          "type": "uint256"
        }
      ],
      "stateMutability": "view",
      "type": "function"
    },
    {
      "inputs": [],
      "name": "DONATION_COMMISSION_RATE",
      "outputs": [
        {
          "internalType": "uint256",
          "name": "",
          "type": "uint256"
        }
      ],
      "stateMutability": "view",
      "type": "function"
    },
    {
      "inputs": [],
      "name": "DONATION_CREATION_FEE",
      "outputs": [
        {
          "internalType": "uint256",
          "name": "",
          "type": "uint256"
        }
      ],
      "stateMutability": "view",
      "type": "function"
    },
    {
      "inputs": [],
      "name": "PLATFORM_SHARE",
      "outputs": [
        {
          "internalType": "uint256",
          "name": "",
          "type": "uint256"
        }
      ],
      "stateMutability": "view",
      "type": "function"
    },
    {
      "inputs": [],
      "name": "RAFFLE_COMMISSION_RATE",
      "outputs": [
        {
          "internalType": "uint256",
          "name": "",
          "type": "uint256"
        }
      ],
      "stateMutability": "view",
      "type": "function"
    },
    {
      "inputs": [],
      "name": "RAFFLE_CREATION_FEE",
      "outputs": [
        {
          "internalType": "uint256",
          "name": "",
          "type": "uint256"
        }
      ],
      "stateMutability": "view",
      "type": "function"
    },
    {
      "inputs": [],
      "name": "USDT",
      "outputs": [
        {
          "internalType": "contract IERC20",
          "name": "",
          "type": "address"
        }
      ],
      "stateMutability": "view",
      "type": "function"
    },
    {
      "inputs": [
        {
          "internalType": "uint256",
          "name": "_raffleId",
          "type": "uint256"
        },
        {
          "internalType": "bool",
          "name": "_approve",
          "type": "bool"
        }
      ],
      "name": "approveRaffleResult",
      "outputs": [],
      "stateMutability": "nonpayable",
      "type": "function"
    },
    {
      "inputs": [
        {
          "internalType": "uint256",
          "name": "_raffleId",
          "type": "uint256"
        },
        {
          "internalType": "uint256",
          "name": "_quantity",
          "type": "uint256"
        }
      ],
      "name": "buyTickets",
      "outputs": [],
      "stateMutability": "nonpayable",
      "type": "function"
    },
    {
      "inputs": [],
      "name": "commissionWallet",
      "outputs": [
        {
          "internalType": "address",
          "name": "",
          "type": "address"
        }
      ],
      "stateMutability": "view",
      "type": "function"
    },
    {
      "inputs": [
        {
          "internalType": "string",
          "name": "_title",
          "type": "string"
        },
        {
          "internalType": "string",
          "name": "_description",
          "type": "string"
        },
        {
          "internalType": "uint256",
          "name": "_goalAmount",
          "type": "uint256"
        },
        {
          "internalType": "uint256",
          "name": "_duration",
          "type": "uint256"
        },
        {
          "internalType": "bool",
          "name": "_isUnlimited",
          "type": "bool"
        }
      ],
      "name": "createDonation",
      "outputs": [],
      "stateMutability": "nonpayable",
      "type": "function"
    },
    {
      "inputs": [
        {
          "internalType": "string",
          "name": "_title",
          "type": "string"
        },
        {
          "internalType": "string",
          "name": "_description",
          "type": "string"
        },
        {
          "internalType": "uint256",
          "name": "_prizeAmount",
          "type": "uint256"
        },
        {
          "internalType": "uint256",
          "name": "_ticketPrice",
          "type": "uint256"
        },
        {
          "internalType": "uint256",
          "name": "_maxTickets",
          "type": "uint256"
        },
        {
          "internalType": "uint256",
          "name": "_duration",
          "type": "uint256"
        },
        {
          "internalType": "enum DuxxanPlatformSimple.PrizeType",
          "name": "_prizeType",
          "type": "uint8"
        }
      ],
      "name": "createRaffle",
      "outputs": [],
      "stateMutability": "nonpayable",
      "type": "function"
    },
    {
      "inputs": [],
      "name": "deployWallet",
      "outputs": [
        {
          "internalType": "address",
          "name": "",
          "type": "address"
        }
      ],
      "stateMutability": "view",
      "type": "function"
    },
    {
      "inputs": [
        {
          "internalType": "uint256",
          "name": "",
          "type": "uint256"
        },
        {
          "internalType": "address",
          "name": "",
          "type": "address"
        }
      ],
      "name": "donationContributions",
      "outputs": [
        {
          "internalType": "uint256",
          "name": "",
          "type": "uint256"
        }
      ],
      "stateMutability": "view",
      "type": "function"
    },
    {
      "inputs": [],
      "name": "donationCounter",
      "outputs": [
        {
          "internalType": "uint256",
          "name": "",
          "type": "uint256"
        }
      ],
      "stateMutability": "view",
      "type": "function"
    },
    {
      "inputs": [
        {
          "internalType": "uint256",
          "name": "",
          "type": "uint256"
        }
      ],
      "name": "donations",
      "outputs": [
        {
          "internalType": "uint256",
          "name": "id",
          "type": "uint256"
        },
        {
          "internalType": "address",
          "name": "creator",
          "type": "address"
        },
        {
          "internalType": "string",
          "name": "title",
          "type": "string"
        },
        {
          "internalType": "string",
          "name": "description",
          "type": "string"
        },
        {
          "internalType": "uint256",
          "name": "goalAmount",
          "type": "uint256"
        },
        {
          "internalType": "uint256",
          "name": "currentAmount",
          "type": "uint256"
        },
        {
          "internalType": "uint256",
          "name": "endTime",
          "type": "uint256"
        },
        {
          "internalType": "uint8",
          "name": "flags",
          "type": "uint8"
        }
      ],
      "stateMutability": "view",
      "type": "function"
    },
    {
      "inputs": [
        {
          "internalType": "address",
          "name": "_token",
          "type": "address"
        },
        {
          "internalType": "uint256",
          "name": "_amount",
          "type": "uint256"
        }
      ],
      "name": "emergencyWithdraw",
      "outputs": [],
      "stateMutability": "nonpayable",
      "type": "function"
    },
    {
      "inputs": [
        {
          "internalType": "uint256",
          "name": "_raffleId",
          "type": "uint256"
        }
      ],
      "name": "endRaffle",
      "outputs": [],
      "stateMutability": "nonpayable",
      "type": "function"
    },
    {
      "inputs": [
        {
          "internalType": "uint256",
          "name": "_donationId",
          "type": "uint256"
        },
        {
          "internalType": "uint256",
          "name": "_amount",
          "type": "uint256"
        }
      ],
      "name": "makeDonation",
      "outputs": [],
      "stateMutability": "nonpayable",
      "type": "function"
    },
    {
      "inputs": [],
      "name": "owner",
      "outputs": [
        {
          "internalType": "address",
          "name": "",
          "type": "address"
        }
      ],
      "stateMutability": "view",
      "type": "function"
    },
    {
      "inputs": [],
      "name": "raffleCounter",
      "outputs": [
        {
          "internalType": "uint256",
          "name": "",
          "type": "uint256"
        }
      ],
      "stateMutability": "view",
      "type": "function"
    },
    {
      "inputs": [
        {
          "internalType": "uint256",
          "name": "",
          "type": "uint256"
        },
        {
          "internalType": "address",
          "name": "",
          "type": "address"
        }
      ],
      "name": "raffleTickets",
      "outputs": [
        {
          "internalType": "uint256",
          "name": "",
          "type": "uint256"
        }
      ],
      "stateMutability": "view",
      "type": "function"
    },
    {
      "inputs": [
        {
          "internalType": "uint256",
          "name": "",
          "type": "uint256"
        }
      ],
      "name": "raffles",
      "outputs": [
        {
          "internalType": "uint256",
          "name": "id",
          "type": "uint256"
        },
        {
          "internalType": "address",
          "name": "creator",
          "type": "address"
        },
        {
          "internalType": "string",
          "name": "title",
          "type": "string"
        },
        {
          "internalType": "string",
          "name": "description",
          "type": "string"
        },
        {
          "internalType": "uint256",
          "name": "prizeAmount",
          "type": "uint256"
        },
        {
          "internalType": "uint256",
          "name": "ticketPrice",
          "type": "uint256"
        },
        {
          "internalType": "uint256",
          "name": "maxTickets",
          "type": "uint256"
        },
        {
          "internalType": "uint256",
          "name": "ticketsSold",
          "type": "uint256"
        },
        {
          "internalType": "uint256",
          "name": "endTime",
          "type": "uint256"
        },
        {
          "internalType": "address",
          "name": "winner",
          "type": "address"
        },
        {
          "internalType": "enum DuxxanPlatformSimple.PrizeType",
          "name": "prizeType",
          "type": "uint8"
        },
        {
          "internalType": "uint8",
          "name": "flags",
          "type": "uint8"
        }
      ],
      "stateMutability": "view",
      "type": "function"
    },
    {
      "inputs": [],
      "name": "renounceOwnership",
      "outputs": [],
      "stateMutability": "nonpayable",
      "type": "function"
    },
    {
      "inputs": [
        {
          "internalType": "address",
          "name": "newOwner",
          "type": "address"
        }
      ],
      "name": "transferOwnership",
      "outputs": [],
      "stateMutability": "nonpayable",
      "type": "function"
    },
    {
      "inputs": [
        {
          "internalType": "address",
          "name": "_newWallet",
          "type": "address"
        }
      ],
      "name": "updateCommissionWallet",
      "outputs": [],
      "stateMutability": "nonpayable",
      "type": "function"
    }
  ],
  "bytecode": "0x60c0346200014057601f6200226c38819003918201601f19168301916001600160401b038311848410176200014557808492604094855283398101031262000140576200005a602062000052836200015b565b92016200015b565b60016000553315620001275760018054336001600160a01b031980831682179093556040519492936001600160a01b0393909284929083167f8be0079c531659141344cd1fd0a4f28419497f9722a3daafe3b4186f6b6457e0600080a316608052169060025416176002553360a0526120fb9081620001718239608051818181610362015281816107b501528181610b3201528181610d7f0152818161117d015281816115e501528181611a1401528181611a880152611bcb015260a05181818161107e01526116600152f35b604051631e4fbdf760e01b815260006004820152602490fd5b600080fd5b634e487b7160e01b600052604160045260246000fd5b51906001600160a01b0382168203620001405756fe608080604052600436101561001357600080fd5b60003560e01c90816304d38dd414611d675750806329c6f60c1461079557806331ae8abc1461184f57806338d187dd1461183157806352fba8ef146110ad57806353535db9146110685780635d4bc0ce14610f7e578063623560af14610cd157806366fab57c1461079a5780636aa42e4e14610cb5578063715018a614610c585780638627df4614610a8a5780638da5cb5b14610a6157806395ccea67146109e257806397c0262a146109b95780639def429d1461084a578063a9f8623a14610802578063c2f306a5146107e4578063c54e44eb1461079f578063cc0c30391461079a578063e444a27814610795578063ee2c18ba1461074d578063f29c940b146102bd578063f2fde38b14610234578063f33b5541146101f15763f8626af81461013d57600080fd5b346101ec5760203660031901126101ec5760043560005260046020526040600020805460018060a01b036001830154169161017a60028201611e56565b61018660038301611e56565b916004810154926101d36005830154916101c560ff600760068701549601541695604051998a998a5260208a01526101008060408b0152890190611efc565b908782036060890152611efc565b93608086015260a085015260c084015260e08301520390f35b600080fd5b346101ec5760203660031901126101ec5761020a611f7b565b610212611fa7565b600280546001600160a01b0319166001600160a01b0392909216919091179055005b346101ec5760203660031901126101ec5761024d611f7b565b610255611fa7565b6001600160a01b039081169081156102a457600154826001600160601b0360a01b821617600155167f8be0079c531659141344cd1fd0a4f28419497f9722a3daafe3b4186f6b6457e0600080a3005b604051631e4fbdf760e01b815260006004820152602490fd5b346101ec5760a03660031901126101ec576004356001600160401b0381116101ec576102ed903690600401611dc6565b6024356001600160401b0381116101ec5761030c903690600401611dc6565b60843580151581036101ec57610320612007565b6002546040516323b872dd60e01b81523360048201526001600160a01b03918216602482015268015af1d78b58c40000604482015290939060208160648160007f00000000000000000000000000000000000000000000000000000000000000008a165af1801561074157610712575b50600854918015610700576000905b156106f8576003905b604051946101008601938685106001600160401b038611176106225760ff94604052858752336020880152604087015260608601526044356080860152600060a086015260c08501521660e083015260005260046020526040600020918151835560018301906020830151166001600160601b0360a01b82541617905560408101519182516001600160401b038111610622576104486002830154611e1c565b601f81116106b1575b506020601f82116001146106435781929394600092610638575b50508160011b916000199060031b1c19161760028201555b60608201518051906001600160401b038211610622576104a66003840154611e1c565b601f81116105db575b50602090601f831160011461056457928260e09360079360ff96600092610559575b50508160011b916000199060031b1c19161760038201555b6080850151600482015560a0850151600582015560c08501516006820155019201511660ff1982541617905561054f6008546040516044358152817fdd17f6c68d84fb01706d9f9e9ed1a2267d9171bff4c61d024f503d6c9ccb931c60203393a3611ff8565b6008556001600055005b0151905087806104d1565b906003840160005260206000209160005b601f19851681106105c357508360079360ff969360019360e097601f198116106105aa575b505050811b0160038201556104e9565b015160001960f88460031b161c1916905587808061059a565b91926020600181928685015181550194019201610575565b600384016000526020600020601f840160051c81016020851061061b575b601f830160051c8201811061060f5750506104af565b600081556001016105f9565b50806105f9565b634e487b7160e01b600052604160045260246000fd5b01519050848061046b565b6002830160005260206000209060005b601f19841681106106995750600193949583601f19811610610680575b505050811b016002820155610483565b015160001960f88460031b161c19169055848080610670565b9091602060018192858a015181550193019101610653565b600283016000526020600020601f830160051c8101602084106106f1575b601f830160051c820181106106e5575050610451565b600081556001016106cf565b50806106cf565b6001906103a8565b61070c60643542611feb565b9061039f565b6107339060203d60201161073a575b61072b8183611da5565b810190611fd3565b5084610390565b503d610721565b6040513d6000823e3d90fd5b346101ec5760403660031901126101ec57610766611f91565b600435600052600560205260406000209060018060a01b03166000526020526020604060002054604051908152f35b611d81565b611f5f565b346101ec5760003660031901126101ec576040517f00000000000000000000000000000000000000000000000000000000000000006001600160a01b03168152602090f35b346101ec5760003660031901126101ec576020600754604051908152f35b346101ec5760403660031901126101ec5761081b611f91565b600435600052600660205260406000209060018060a01b03166000526020526020604060002054604051908152f35b346101ec5760203660031901126101ec5760043580600052600360205260406000209060098201805460a81c9061088560018084161461202a565b600884015442108015906109a7575b1561096f5760018401546001600160a01b039290831633148015610962575b1561092c57815460ff60a81b191660fe9190911660021760a81b60ff60a81b161781557f3f8a70ebc2357528ffbd62df52804d67d18cb2dc04d8a034c9c932e982d2cf3791602091600491906007870154610917575b5416940154604051908152a3005b80546001600160a01b03191633178155610909565b60405162461bcd60e51b815260206004820152600e60248201526d139bdd08185d5d1a1bdc9a5e995960921b6044820152606490fd5b50826001541633146108b3565b60405162461bcd60e51b815260206004820152601060248201526f526166666c65206e6f7420726561647960801b6044820152606490fd5b50600784015460068501541115610894565b346101ec5760003660031901126101ec576002546040516001600160a01b039091168152602090f35b346101ec5760403660031901126101ec576109fb611f7b565b610a03611fa7565b60015460405163a9059cbb60e01b81526001600160a01b03918216600482015260248035908201529160209183916044918391600091165af1801561074157610a4857005b610a5f9060203d811161073a5761072b8183611da5565b005b346101ec5760003660031901126101ec576001546040516001600160a01b039091168152602090f35b346101ec57610a9836611f49565b90610aa1612007565b806000526020600381526040600020610ac5600180600984015460a81c161461202a565b6008810154421015610c24576007810190610ae1858354611feb565b600682015410610bea579082610aff866005610b2c9695015461206a565b6040516323b872dd60e01b8152336004820152306024820152604481019190915293849081906064820190565b038160007f00000000000000000000000000000000000000000000000000000000000000006001600160a01b03165af1928315610741577fdbaaf4c87ce30816c961a81d110622a3227ede77953d4383d514ff88ab2e0fd393610bcd575b50836000526005825260406000203360005282526040600020610bae868254611feb565b9055610bbb858254611feb565b90556040519384523393a36001600055005b610be390833d851161073a5761072b8183611da5565b5085610b8a565b60405162461bcd60e51b81526004810184905260126024820152714e6f7420656e6f756768207469636b65747360701b6044820152606490fd5b60405162461bcd60e51b815260048101839052600c60248201526b149859999b1948195b99195960a21b6044820152606490fd5b346101ec5760003660031901126101ec57610c71611fa7565b600180546001600160a01b031981169091556000906001600160a01b03167f8be0079c531659141344cd1fd0a4f28419497f9722a3daafe3b4186f6b6457e08280a3005b346101ec5760003660031901126101ec576020604051600a8152f35b346101ec57610cdf36611f49565b90610ce8612007565b80600052602060048152604060002090600782015460018082161480610f75575b15610f3d5760021615610efd575b610d1f61207d565b918460011b85810460021486151715610ee7576064900492828101848152603285029480860460321490151715610ee75760808260646040610df2950197048752610d6b83518a6120b8565b918291015260018060a01b039585610dba887f00000000000000000000000000000000000000000000000000000000000000001693610db48a60018a01541696518551906120b8565b90611feb565b6040516323b872dd60e01b8082523360048301526001600160a01b039096166024820152604481019190915294859081906064820190565b03816000865af1801561074157610e46978795600092610eca575b50600254925160405195865233600487015292166001600160a01b03166024850152604484019190915291958692839182906064820190565b03925af1908115610741577fe555da28bdb778f65d22794d88927ebaeca03f7de9d1b7d39245bc8fb5ca078a93600592610ead575b50846000526006835260406000203360005283526040600020610e9f878254611feb565b905501610bbb858254611feb565b610ec390843d861161073a5761072b8183611da5565b5086610e7b565b610ee090873d891161073a5761072b8183611da5565b508b610e0d565b634e487b7160e01b600052601160045260246000fd5b60068201544210610d17576064906040519062461bcd60e51b82526004820152600e60248201526d111bdb985d1a5bdb88195b99195960921b6044820152fd5b60405162461bcd60e51b815260048101839052601060248201526f24b73b30b634b2103237b730ba34b7b760811b6044820152606490fd5b50841515610d09565b346101ec5760203660031901126101ec5760043560005260036020526020604060002080549060ff60018060a01b038060018401541690610fc160028501611e56565b93610fce60038201611e56565b94600482015495600583015461102460068501549261101660078701549560096008890154980154996040519e8f9e8f908152015260408d61018091829101528d0190611efc565b908b820360608d0152611efc565b9760808a015260a089015260c088015260e0870152610100860152811661012085015261105a6101408501838360a01c16611f3c565b60a81c166101608301520390f35b346101ec5760003660031901126101ec576040517f00000000000000000000000000000000000000000000000000000000000000006001600160a01b03168152602090f35b346101ec5760e03660031901126101ec576004356001600160401b0381116101ec576110dd903690600401611dc6565b6024356001600160401b0381116101ec576110fc903690600401611dc6565b600260c43510156101ec5761110f612007565b604435156117e0576064351561178f576084351561173f5760a435156116fa5760c43515611656575b6002546040516323b872dd60e01b81523360048201526001600160a01b03918216602482015268015af1d78b58c40000604482015290602090829060649082906000907f0000000000000000000000000000000000000000000000000000000000000000165af1801561074157611637575b5060c435156115b2575b600754906111c460a43542611feb565b9060405193846101808101106001600160401b036101808701111761062257610180850160405283855233602086015260408501526060840152604435608084015260643560a084015260843560c0840152600060e0840152610100830152600061012083015260c43561014083015260016101608301526000526003602052604060002090805182556001820160018060a01b036020830151166001600160601b0360a01b82541617905560408101519182516001600160401b038111610622576112936002830154611e1c565b601f811161156b575b506020601f82116001146114fd57819293946000926114f2575b50508160011b916000199060031b1c19161760028201555b60608201518051906001600160401b038211610622576112f16003840154611e1c565b601f81116114ab575b50602090601f83116001146114385760099392916000918361142d575b50508160011b916000199060031b1c19161760038201555b6080830151600482015560a0830151600582015560c0830151600682015560e0830151600782015561010083015160088201550160018060a01b036101208301511681549261014081015190600282101561141757610160015160ff60a81b199092166001600160b01b03199094169390931760a09390931b60ff60a01b169290921760a89290921b60ff60a81b1691909117905561140d60075460405160443581526113e16020820160c435611f3c565b817fc890c80dc6c21b947623ff0de3cbaf1a694c5d9f0aa6334eaecae1fb59fe960960403393a3611ff8565b6007556001600055005b634e487b7160e01b600052602160045260246000fd5b015190508580611317565b906003840160005260206000209160005b601f1985168110611493575091839160019360099695601f1981161061147a575b505050811b01600382015561132f565b015160001960f88460031b161c1916905585808061146a565b91926020600181928685015181550194019201611449565b600384016000526020600020601f840160051c8101602085106114eb575b601f830160051c820181106114df5750506112fa565b600081556001016114c9565b50806114c9565b0151905084806112b6565b6002830160005260206000209060005b601f19841681106115535750600193949583601f1981161061153a575b505050811b0160028201556112ce565b015160001960f88460031b161c1916905584808061152a565b9091602060018192858a01518155019301910161150d565b600283016000526020600020601f830160051c8101602084106115ab575b601f830160051c8201811061159f57505061129c565b60008155600101611589565b5080611589565b6040516323b872dd60e01b8152336004820152306024820152604480359082015260208160648160006001600160a01b037f0000000000000000000000000000000000000000000000000000000000000000165af1801561074157611618575b506111b4565b6116309060203d60201161073a5761072b8183611da5565b5082611612565b61164f9060203d60201161073a5761072b8183611da5565b50826111aa565b60018060a01b03807f00000000000000000000000000000000000000000000000000000000000000001633149081156116ec575b506111385760405162461bcd60e51b815260206004820152602f60248201527f4f6e6c7920617574686f72697a65642077616c6c6574732063616e206372656160448201526e7465205553445420726166666c657360881b6064820152608490fd5b90506002541633148361168a565b60405162461bcd60e51b815260206004820152601f60248201527f4475726174696f6e206d7573742062652067726561746572207468616e2030006044820152606490fd5b60405162461bcd60e51b815260206004820152602260248201527f4d6178207469636b657473206d7573742062652067726561746572207468616e604482015261020360f41b6064820152608490fd5b60405162461bcd60e51b815260206004820152602360248201527f5469636b6574207072696365206d75737420626520677265617465722074686160448201526206e20360ec1b6064820152608490fd5b60405162461bcd60e51b815260206004820152602360248201527f5072697a6520616d6f756e74206d75737420626520677265617465722074686160448201526206e20360ec1b6064820152608490fd5b346101ec5760003660031901126101ec576020600854604051908152f35b346101ec5760403660031901126101ec57602480359081151582036101ec57600435806000526020600381526040600020936009850190815460a81c600280821603611d2c5760108116611cf6576001949596858060a01b039586910154163314600014611cb2575015611ca2576118e6600460ff835460a81c16175b825460ff60a81b191660a89190911b60ff60a81b16178255565b5482600c808360a81c16149182611c96575b505061190057005b826000526003815260406000209160098301805460a81c60108116611c5f57815460ff60a81b191660ff9190911660101760a81b60ff60a81b1617815561194561207d565b95611959600786015460058701549061206a565b808852600a810290808204600a1490151715611c4a57606490049484880190868252603287029680880460321490151715611c3557606460408a019704875260606119a78a518451906120b8565b990198895283549260ff8460a01c16906002821015611c215750611b9d57611a0d925085858554166119df60048401548c5190611feb565b60405163a9059cbb60e01b81526001600160a01b039092166004830152602482015293849081906044820190565b03816000897f0000000000000000000000000000000000000000000000000000000000000000165af192831561074157611a8193611b80575b505b600254875160405163a9059cbb60e01b8082529288166001600160a01b0316600482015260248101919091529390929084906044820190565b03918785887f00000000000000000000000000000000000000000000000000000000000000001694816000875af190811561074157611b0699886001611ad9938c99600096611b63575b5001541693519051906120b8565b6040519485526001600160a01b039092166004850152602484019190915291968792839182906044820190565b03925af1938415610741577f5621778ab13fbf7130d91ae5035a140b79a6cfd120059c2ea0fec2a5ce6731a694611b46575b5054169351604051908152a3005b611b5c90843d861161073a5761072b8183611da5565b5086611b38565b611b79908b3d8d1161073a5761072b8183611da5565b5038611acb565b611b9690873d891161073a5761072b8183611da5565b5089611a46565b885160405163a9059cbb60e01b81529386166001600160a01b031660048501526024840152858360448160007f00000000000000000000000000000000000000000000000000000000000000008a165af192831561074157611a8193611c04575b50611a48565b611c1a90873d891161073a5761072b8183611da5565b5089611bfe565b634e487b7160e01b60009081526021600452fd5b82634e487b7160e01b60005260116004526000fd5b50634e487b7160e01b60009081526011600452fd5b60405162461bcd60e51b8152600481018590526010818901526f105b1c9958591e481c995b19585cd95960821b6044820152606490fd5b161515905082866118f8565b6118e660fb825460a81c166118cc565b8460015416331460001461092c57611ce99115611cee5760ff16600817825460ff60a81b191660a89190911b60ff60a81b16178255565b6118e6565b60f7166118cc565b60405162461bcd60e51b815260048101859052600f818801526e14185e5bdd5d081c995b19585cd959608a1b6044820152606490fd5b60405162461bcd60e51b81526004810185905260148188015273149859999b19481b9bdd0818dbdb5c1b195d195960621b6044820152606490fd5b346101ec5760003660031901126101ec5780600260209252f35b346101ec5760003660031901126101ec57602060405168015af1d78b58c400008152f35b90601f801991011681019081106001600160401b0382111761062257604052565b81601f820112156101ec578035906001600160401b0382116106225760405192611dfa601f8401601f191660200185611da5565b828452602083830101116101ec57816000926020809301838601378301015290565b90600182811c92168015611e4c575b6020831014611e3657565b634e487b7160e01b600052602260045260246000fd5b91607f1691611e2b565b9060405191826000825492611e6a84611e1c565b908184526001948581169081600014611ed95750600114611e96575b5050611e9492500383611da5565b565b9093915060005260209081600020936000915b818310611ec1575050611e9493508201013880611e86565b85548884018501529485019487945091830191611ea9565b915050611e9494506020925060ff191682840152151560051b8201013880611e86565b919082519283825260005b848110611f28575050826000602080949584010152601f8019910116010190565b602081830181015184830182015201611f07565b9060028210156114175752565b60409060031901126101ec576004359060243590565b346101ec5760003660031901126101ec57602060405160328152f35b600435906001600160a01b03821682036101ec57565b602435906001600160a01b03821682036101ec57565b6001546001600160a01b03163303611fbb57565b60405163118cdaa760e01b8152336004820152602490fd5b908160209103126101ec575180151581036101ec5790565b91908201809211610ee757565b6000198114610ee75760010190565b600260005414612018576002600055565b604051633ee5aeb560e01b8152600490fd5b1561203157565b60405162461bcd60e51b8152602060048201526011602482015270526166666c65206e6f742061637469766560781b6044820152606490fd5b81810292918115918404141715610ee757565b6040519060a082018281106001600160401b038211176106225760405260006080838281528260208201528260408201528260608201520152565b91908203918211610ee75756fea2646970667358221220b3f6f8891e9b159934bc31e610c6f77655f571bf60a631b976ac7c7f7c24e4b464736f6c63430008140033",
  "linkReferences": {},
  "deployedLinkReferences": {}
}